:020000040800F2
:10000000D81600209101000851420008193E00084E
:1000100000000000000000000000000000000000E0
:100020000000000000000000000000005542000831
:100030000000000000000000534200085742000882
:10004000C1010008C1010008C1010008C101000888
:10005000C1010008C1010008C1010008C101000878
:10006000C1010008710C0008C1010008810C0008E2
:10007000C1010008C1010008C1010008C101000858
:10008000C10100080000000000000000F14200086B
:1000900000000000C1010008C1010008C101000802
:1000A00000000000C1010008C1010008C1010008F2
:1000B000C101000800000000C1010008E96000085B
:1000C00000F002F800F038F80CA030C80838241806
:1000D0002D18671EA246AB4654465D46AC4201D180
:1000E00000F02AF87E460F3EB6460FCC012633427A
:1000F00000D0FB1A3343A246AB46184738660000CF
:10010000586600000023002400250026103A01D381
:1001100078C1FBD8520700D330C100D50B607047BF
:1001200010B5752902D100F01BF910BD002010BDDB
:100130001FB51FBD10B510BD00F095FB1146FFF7B0
:10014000F7FF06F015F900F0ADFB03B4FFF7F2FF7F
:1001500003BC00F0B3FB000070B505460C46164624
:1001600002E00FCC0FC5103E102EFAD2082E02D39B
:1001700003CC03C5083E042E07D301CC01C5361FAE
:1001800003E021782970641C6D1C761EF9D270BDC5
:100190000F4880F308880F480168090E0E4A914203
:1001A00005D10E480E4901600E480F4901600F4805
:1001B00080470F480047FEE7FEE7FEE7FEE7FEE761
:1001C000FEE700000B480C490C4A0D4B704700003D
:1001D000D8160020040000001F0000001810024084
:1001E000010000000000014000000000EF42000894
:1001F000C1000008D80E0020D8160020D812002018
:10020000D8120020FEB5044610460D46184373D0A0
:10021000A6468C460020A41A01469D4167D3664637
:10022000002701243D46B61A9D4102D313463A46A3
:100230002124654676462F04360C3E432D0CB61A13
:100240009D4104D3150C1B042B4312041034654646
:1002500076462F06360A3E432D0AB61A9D4104D330
:10026000150E1B022B4312020834654676462F07F3
:1002700036093E432D09B61A9D4104D3150F1B01C3
:100280002B431201241D65467646AF07B6083E4350
:10029000AD08B61A9D4104D3950F9B002B439200E5
:1002A000A41C65467646EF0776083E436D08B61AED
:1002B0009D411AD392185B41641C16E000187646E3
:1002C00065464941B71A9D410191009009D36046A6
:1002D000B11A98418E468446009801990025401C29
:1002E0006941DD0752082A435B08641EE6D5724661
:1002F000634603B0F0BDFFE72046284307D0002047
:10030000C0430146C046C04622462B46F1E70020C6
:100310000146F7E70FB41CB5074B06AA7B446946B4
:100320000090059800F073FA0020694600F082FA08
:100330001CBC08BC04B018471505000009684A0534
:1003400001D540B27047C905FCD500B270470968B5
:100350004A0501D5C0B27047C905FCD580B27047C7
:10036000F7B5002575291068009914A611D0FFF77C
:10037000E5FF002802DA404211A608E0009909686A
:100380008A0701D50FA602E0490704D50EA601256C
:1003900001E0FFF7DCFF009F0024243704E000F0B9
:1003A0004EFA30313955641C0028F8D12B463246BC
:1003B0002146009800F0CDF9FEBD000000000000CD
:1003C0002D0000002B00000020000000F8B50F46B3
:1003D0000546002028622846E9688847002852D050
:1003E000252802D06A68A96849E0E96828460026FD
:1003F00088476C2804460AD0682C08D04C2C37D08B
:100400006A2C33D0742C33D07A2C31D015E0E968C3
:10041000064628468847B042044608D16C2E25D0AF
:100420000126B6022846E9688847044605E06C2E96
:1004300002D0FF26013600E04026002C23D02046C3
:100440004138192803D80120C002064320343A4617
:1004500028462E602146FFF763FE00280CD00128B5
:1004600008D0FF1DFF08FF000837B4E78026D9E752
:100470000026D7E73F1DAEE76A682046A968904787
:10048000286A401CA6E7286AF8BD000030B5441C65
:1004900003E00178401C00290DD08107F9D10B4BF6
:1004A000DD0104C8D11A91432940FAD0001B0A0685
:1004B00003D0C01E30BD001B30BD0A0401D0801E19
:1004C00030BD0902FCD0401E30BD00000101010119
:1004D000F8B5042A2CD3830712D00B78491C03707B
:1004E000401C521E83070BD00B78491C0370401C24
:1004F000521E830704D00B78491C0370401C521E07
:100500008B079B0F05D0C91ADF002023DE1B08C90B
:100510000AE0FFF721FEF8BD1D4608C9FD401C4654
:10052000B4402C4310C0121F042AF5D2F308C91A94
:10053000521EF0D40B78491C0370401C521EEAD4A2
:100540000B78491C0370401C012AE4D4097801701F
:10055000F8BD0000002203098B4273D3030A8B42CB
:1005600058D3030B8B423CD3030C8B4221D312E0B4
:1005700003460B437FD4002243088B4274D3030904
:100580008B425FD3030A8B4244D3030B8B4228D3A5
:10059000030C8B420DD30902FF2212BA030C8B42CB
:1005A00002D31212090265D0030B8B4219D300E06B
:1005B000090AC30B8B4201D3CB03C01A5241830BF0
:1005C0008B4201D38B03C01A5241430B8B4201D3A0
:1005D0004B03C01A5241030B8B4201D30B03C01AC9
:1005E0005241C30A8B4201D3CB02C01A5241830A43
:1005F0008B4201D38B02C01A5241430A8B4201D372
:100600004B02C01A5241030A8B4201D30B02C01A9B
:100610005241CDD2C3098B4201D3CB01C01A524102
:1006200083098B4201D38B01C01A524143098B428B
:1006300001D34B01C01A524103098B4201D30B0174
:10064000C01A5241C3088B4201D3CB00C01A524199
:1006500083088B4201D38B00C01A524143088B425E
:1006600001D34B00C01A5241411A00D201465241F7
:10067000104670475DE0CA0F00D04942031000D316
:10068000404253409C46002203098B422DD3030A6B
:100690008B4212D38901FC2212BA030A8B420CD37B
:1006A000890192118B4208D3890192118B4204D3A4
:1006B00089013AD0921100E08909C3098B4201D324
:1006C000CB01C01A524183098B4201D38B01C01A5E
:1006D000524143098B4201D34B01C01A52410309D5
:1006E0008B4201D30B01C01A5241C3088B4201D384
:1006F000CB00C01A524183088B4201D38B00C01A31
:100700005241D9D243088B4201D34B00C01A524107
:10071000411A00D201465241104663465B1001D394
:100720004042002B00D54942704763465B1000D31E
:10073000404201B50449002802DC491C084000E0A1
:100740000846C046C04602BDFFFFFF7F70477047A6
:100750007047FFB504460D4681B0243000902168F3
:10076000880604D51022E0699143216000E0012051
:10077000A84201DD471B00E000270498A1697A190F
:100780001018081AA0612078C00602D42046C0467E
:10079000C046002608E003986268A168805D904723
:1007A000206A401C761C206204988642F3DB207885
:1007B000C0060AD52046C046C04606E06268A16869
:1007C00030209047206A401C206238467F1E002857
:1007D000F4DC07E000986268A168405D9047206AF9
:1007E000401C206228466D1E0028F3DC2046C046CF
:1007F000C0462078000602D5022005B0F0BD0120D9
:10080000FBE7000001694A1C02610878704700B5E7
:100810008FB002910021059105490193794403911C
:10082000114604906846FFF7D1FD0FB000BD0000EF
:10083000E5FFFFFF0A681070521C0A60704701460E
:100840008008081A02091018020A1018020C101861
:10085000C008820012185200891A01E0401C0A39AF
:100860000A29FBD27047754600F024F8AE46050011
:1008700069465346C008C000854618B020B5FFF74A
:10088000A1FC60BCB64600260027C0C5C0C5C0C5D7
:10089000C0C5C0C5C0C5C0C5C0C5403D49084900A8
:1008A0008D46704710B50446C046C0462046FFF747
:1008B0004CFC10BD00487047800100200149182001
:1008C000ABBEFEE726000200704770B58C180578B5
:1008D000401C6B075B0F01D10378401C2A1106D125
:1008E0000278401C03E00678401C0E70491C5B1E19
:1008F000F9D12B0705D40023521E0DD40B70491CCF
:10090000FAE70378401CCB1A921C03E01D780D70A7
:10091000491C5B1C521EF9D5A142D8D3002070BDE2
:10092000B0B50146406A826B50231A4204D0006B76
:10093000026B08469047B0BD01214A02836B134306
:1009400083630268D3681B059B0F02D000F0A4FAF2
:10095000B0BD837E002BF9D113681B07F6D59368D1
:100960005B070AD40346383354680C25AC43546003
:10097000FF2402341A68A24306E0826B202313434B
:10098000836303463C33C26B0A431A6000F084FA67
:10099000B0BD80B5406A816B40220A438263C16B5F
:1009A00004220A43C26300F09EFA80BD80B5406A0B
:1009B00000F098FA80BD000070B582B005460024B2
:1009C00001940068816803220A40012A05D1016868
:1009D000C9070ED1C16809040BD48168214A1142AC
:1009E0000AD0A86B10210143A963E86B01242043BE
:1009F000E863204602B070BD816801220A4382602C
:100A000019480068194905F071FD01900198002806
:100A100017D00198401E01900198002811D001982C
:100A2000401E0190019800280BD00198401E0190B3
:100A30000198002805D00198401E019001980028D7
:100A4000E7D100F00BFE064628680068C007D0D149
:100A500000F004FE811B28680329F6D30168C9074A
:100A6000F3D1BEE7170000802800002040420F00AD
:100A7000F0B585B03F4F386A049000253D62786A32
:100A800003907D62B869BD61F969FD61FA68FB6830
:100A90000293FD603B7801935B1CDCB20F2C2C466B
:100AA00000D81C463C702B46FFF7ACFB86B2324C9C
:100AB00020467043314905F019FD002E00D1304623
:100AC0000199490079180A8D088539890818861A0C
:100AD0003E8104980399029A2B46FFF793FB054643
:100AE00079780F2901D8491C7970B0B2102902D148
:100AF0000830060904E04A08101805F0F7FC06461D
:100B0000ADB26C431D49204605F0F0FCBA785100A7
:100B10007B184824002D00D12846195B1853BE804D
:100B2000521CD3B20F2B00D90022BA707A89101848
:100B3000401A7881F9780F2901D8491CF97080B2E0
:100B4000102902D10830000903E04A08101805F006
:100B5000CDFCF880BA88FB88094C0AA12046FFF733
:100B6000D9FB2046FFF792FC81B2204600F064F8E2
:100B700005B0F0BD08020020E40C0000FF0F0000EB
:100B8000150700202568752C2568750A00000000EF
:100B900080B5D24910310248022200F09BFA80BD94
:100BA000FC09002021280AD1082088710020487102
:100BB0000871C87001228A70C2224A700870002031
:100BC0007047002070470000B0B5284C0749002549
:100BD00020462A4603F07EFD0549204603F072FDBB
:100BE000204603F050FD2846B0BDC046D506002083
:100BF00095060020B0B504460A68501E07280AD89A
:100C00000D460A482146FFF763FC2868084908603A
:100C1000084801210170154D2846214603F052FD78
:100C2000284603F030FD0020B0BDC046C80E0020AD
:100C3000C40E00209406002010B50A460146572035
:100C4000C0000A4B185885239B00C358002B01D0C5
:100C5000012010BD21231B01C0180260034C204657
:100C600003F038FD204603F0A1FD10BD3807002039
:100C700080B5024800F080FA80BDC0463C0A0020E2
:100C800080B5034800F078FA024800F075FA80BD9C
:100C9000C40A0020800A0020EFF3108072B6FEE73D
:100CA000F0B583B005463420285C012803D1022426
:100CB000204603B0F0BD2F46343701243C7028682D
:100CC000816803231940012905D10168C90735D17D
:100CD000C168090432D481214900AA6B8A43911C5E
:100CE000A963C1680191C16802939943C160E1079A
:100CF00082680A43826000F0B1FC06462868816879
:100D000000290ED500F0AAFC811B28680329F6D320
:100D100081680029F3D5A86B10210143022081438B
:100D20000FE00299019A0A40C1681143C160A86BA3
:100D3000204302218843A863002403E0A86B2021FC
:100D40000143A96300203870204603B0F0BD0000C5
:100D5000F0B583B0002302933422825C012A02D1D1
:100D6000022003B0F0BD0193074634370668B2682D
:100D7000520716D400970D684B6801242746AF40F0
:100D80003E4A934214D1B06AB843B0622846103844
:100D90000228019E3046009F5BD8112D1AD03C4896
:100DA00019E0816B20220A4382630120019E50E0FA
:100DB000B26A3A43B262C06A421E072A4CD228463F
:100DC00010380228019E3046009F42D8112D0DD0C8
:100DD00020060CE02D48102D00D12E4828490A6825
:100DE00002400A6030463E7003B0F0BDA005102DF1
:100DF00000D1E00522490A6802430A60102D3046FE
:100E000027D120480068204905F070FB0A214143A2
:100E100002910298002830461BD00298401E029092
:100E20000298002811D00298401E029002980028D3
:100E30000BD00298401E02900298002805D002981C
:100E4000401E029002980028E7D130463E7003B061
:100E5000F0BD3E7003B0F0BD22079042AFD0726982
:100E60000720024089689142A9D072698243726169
:100E70000140706908437061A1E7C046011000009D
:100E8000082701402800002040420F00FFFFBFFF5D
:100E9000FFFFFFFEFFFF7FFFB0B500688949884272
:100EA00000D0B0BDEFF3108072B60C48018A8269A1
:100EB000002351188161C1695941C268521C448A9A
:100EC000056A2C190462C260C161416A59414162DC
:100ED0000348022100F0B2FB62B6B0BD0802002058
:100EE0000004004870477047F0B581B00125002824
:100EF00062D0044606462436806B002803D0A06BDF
:100F0000C00609D554E000203074E063204600F0AC
:100F100097F8A06BC0064BD420688168490747D476
:100F200081214900A26B8A43911CA163826803213D
:100F30000A40012A05D10268D2070ED1C268120404
:100F40000BD4C26818239A43A3681343C36089076C
:100F500002698A43616811430161C168364A0A40E7
:100F6000C260A16A491E4A1E91410903227E920372
:100F7000637EDB031343A27E55031D43E3682769A9
:100F80002B430B43B91E4D424D41AD001D433178FB
:100F900049002943E37E012B14D1002A0FD0A26B14
:100FA00020231343A363E26B01231343E36309E0AC
:100FB000A06B10210143A163284601B0F0BD0122BE
:100FC00012041143E269FF23C2339A4202D00A435A
:100FD000216A1143C2680A43C260E26A531E072BAA
:100FE00024D243690725AB4343612A404369134335
:100FF0004361C068114A02408A420AD10025E56374
:10100000A06B0121014302208143A163284601B066
:10101000F0BDA06B1021014302208143A163E06B6E
:1010200001252843E063284601B0F0BD01231B07DA
:101030009A42D6D0DDE7C0461902FEFFE7FF3F83A4
:10104000F0B587B0044600260696059600681D494F
:10105000884201D007B0F0BD012778021A494A68DA
:1010600002434A604A6802400192019878040A6883
:1010700002430A600968014001910496032003902D
:101080000C20029001980920C00602A900F0E8F99E
:101090000E4D2020B9023A0280230D4F2F606E6062
:1010A000AE60EB602A616961A861EE61284600F0DC
:1010B000CDF8002801D0FFF7EFFD6C62256307B083
:1010C000F0BDC04600240140141002403C0A00203C
:1010D00008000240F0B583B004460068806802272B
:1010E000400714D43420205C012810D00E46254639
:1010F0003435012002902870607E01280AD02046F5
:101100001746FFF759FC3A460746002802D03846F2
:1011100003B0F0BD0192A06B13490140029B18027D
:101120000818A0630027E76321681C20086048684E
:10113000102202434A602F70206B0D4A0D4D8562CC
:10114000C2620A4A0263CA681A43CA604031324620
:10115000019B00F0B9F82068816804220A4382608C
:10116000384603B0F0BDC046FEF0FFFF930900080B
:10117000AD09000821090008F0B585B0C16B026C0B
:1011800004273C460292944003910E682146314068
:101190004B424B41049005682868014639404A4259
:1011A0004A411A4330D001950123022701463940B4
:1011B0004C424C41029A974037421D4619463346ED
:1011C00000D02146049E3446203400292CD008212A
:1011D0000840474247411046D340190700D53D46D5
:1011E000002D019B1ED119680E2291431960012127
:1011F0000A468240039B5A60B163002222706170EC
:10120000316B00290CD10DE02968890602D42968C8
:10121000B943296003994C60049EF16A002901D00A
:101220003046884705B0F0BD019B1968890605D492
:1012300019680A229143196001216170002121700F
:1012400003994F60B16A0029EAD1EBE7F0B585B0A8
:1012500000282FD004460646203602207070A2CC0B
:10126000236860680190A0680290E068039020699C
:1012700004900868114A02402A433A431A430198ED
:1012800002430298024303980243049802430A600F
:101290000025E5620A48206335700A480C3C0818AE
:1012A000142105F023F98000206401207070284685
:1012B00005B0F0BD0125284605B0F0BD0FC0FFFF09
:1012C00000000240F8FFFDBFF0B582B004462020C8
:1012D000255C0220012D2AD02646203601253570B6
:1012E0007778012F21D1022070700020A06326683A
:1012F0003768AF433760E76B0097276C0195BD40B7
:10130000009F7D6073606368102B174600D00F4606
:10131000B760102B00D01146F1603168E26A002AF4
:10132000019B06D00E22114309E00021317002B06A
:10133000F0BD0A22114331603168042291433160CB
:1013400031681943316002B0F0BD0000B0B5044609
:1013500000F084F90546601C02D0DE4800780419CC
:1013600000F07CF9401BA042FAD3B0BDF0B58BB0C1
:10137000AE4A904204D005220092002904D16CE0CC
:1013800002220092002968D0012300252C460493F4
:1013900001910A9023E0099D079EAE400A980168DA
:1013A000B14301601C212140059F8F400699C90867
:1013B000890041180A6ABA430A62C168B143C16030
:1013C0004168089A914341608168B1438160019905
:1013D0000A46DA40AD1C241D5B1C002A3DD05F1E6E
:1013E000049EBE4032460A40F2D0089609950C256C
:1013F00025400F210591A940032606970796B7437C
:101400008C4E0297BE5903910E400927FF060A9899
:10141000B8420A9808D0884FB842009F00D10127EF
:10142000AF40BE42B7D103E00027AF40BE42B2D1C9
:10143000804D029841197E4E356895433560756838
:1014400095437560F5689543F560B5689543B5605B
:101450000A68039882430A609DE70BB0F0BDC0465E
:10146000F0B58EB00A4671490A90884201D0052035
:1014700000E00220009010680C90002800D1D2E01B
:101480000123002403930B942646089210E00C9845
:101490000143089A6648016010680C90D840241DEA
:1014A0005B1C0B99891C0B91761C002800D1BAE0BB
:1014B000591E0398099188400C9901400C91EBD07A
:1014C0000796576815460322394611404E1E012ED5
:1014D000059406971BD803260B9A9640324604962D
:1014E0000A9CA6689643ED680B9A95403543A56023
:1014F000FD06ED0F099EB540666886432E432046E3
:10150000059C46600498C743079E70000CE0104697
:101510000B9DA840C74303292846079E04D1049782
:101520000B981146089A26E002930A9D0346E86844
:101530003840089A926801939A400243EA6002296F
:10154000049715D11C2020400F218140099AD20810
:1015500092000A9DAA18156A8D43089B196981405B
:101560002943116258680321069001401A4600E0A1
:10157000089A029B019881400A9F3868049D284080
:101580000843386006988003800F85D0604908685A
:10159000012738430860086838400D900C2020402F
:1015A0000F2282400321099D8D430D99214EA95997
:1015B00091430A9CAD190922D206944205D01E4AD5
:1015C0009442009A02D13A4600E0002282400A4347
:1015D0002A601748816808984068C202059C079EE7
:1015E00002D50C9A114301E00C9A9143104A916084
:1015F000D168820202D50C9A114301E00C9A914302
:101600000B4AD1605168820302D50C9A114301E064
:101610000C9A9143064A51601168C00300D536E721
:101620000C98814335E70EB0F0BDC0460008004875
:1016300000040140080001400004004842690B46D4
:1016400093430A401104C91881617047002A02D0EF
:101650001822815070472822815070470548006841
:101660007047C0461B48007802490A681018086095
:101670007047C046D40E002080B50648016810228D
:101680000A430260032000F007F800F027F800206A
:1016900080BDC0460020024070B504467D20C000D9
:1016A0000C4E317804F022FF01460B48006804F02C
:1016B0001DFF01F0DFFB0125032C08D8002806D10F
:1016C0000025E84321462A4600F032F87460284697
:1016D00070BDC046000000202800002082B00C48E9
:1016E00001680122114301600168114001910199D3
:1016F000110742680A434260406808400090009821
:101700000448016810220A43026002B07047C046D4
:101710001810024000000140002805D41F21084095
:1017200001218140014801607047C04600E100E0AE
:10173000002805D40322034693430C4A9A1806E076
:101740000F220240083A03239A43074BD21880071E
:10175000C00E8901C9B28140FF23834010689843BD
:10176000084310607047C0461CED00E000E400E054
:10177000F0B502685423D15A01242143D152592192
:10178000CD0000214155D65A02273743D752401980
:1017900084600846F0BD7047B0B528240D060BD50F
:1017A000072529404C4300191030002A0BD08360D4
:1017B000012101730020B0BD4C430019152109011E
:1017C0004018002AF3D1C380002101730020B0BD6E
:1017D00080B55B22D200835828224A438018426A8F
:1017E000184603F0CDF980BD80B55B22D200835846
:1017F00028224A438018592292008258184603F042
:1018000027FA80BD10B507220A4009060AD428210C
:1018100051434118FF2352330024CC5415231B019C
:10182000C91805E028215143411801234B74103198
:101830000A7029221201835C012B01D1022010BD04
:10184000841801222270006803F008FF0020207035
:1018500010BDB0B50F220A4003799A4201D9012088
:10186000B0BD07220A4009060AD428215143411875
:10187000FF2352330024CC5415231B01C91805E063
:1018800028215143411801234B74103100248C70DE
:101890000A7029221201835C012B01D10220B0BD04
:1018A000851801222A70006803F04CFF2C70204636
:1018B000B0BD07220A402821514340185B2189000E
:1018C0004058704770B507240C4009060AD42821F7
:1018D00061434118FF25523500264E5515252D012F
:1018E000491905E028216143411801254D74103143
:1018F0000A61CB700C70022B01D100220A712922DF
:101900001201835C012B01D1022070BD84180122D9
:101910002270006803F084FD0020207070BDB0B517
:1019200007240C4028216143411815252D014C55F1
:10193000491900240D4614351CC54C70006803F08D
:1019400055FF2046B0BD10B507220A4003799A42E0
:1019500001D9012010BD0B060AD428234B43C1181E
:10196000FF2352330024CC5415231B01C91805E072
:1019700028215143411801234B7410310A70012270
:101980008A7029231B01C45C012C01D1022010BDE7
:10199000C4182270006803F00BFF0020207010BDF7
:1019A00070B507240C4028216143411834250126D5
:1019B0004E550B634E740C74103100240D461435D3
:1019C0001CC5006803F012FF204670BDF0B591B051
:1019D00006465924006804F08FFB01210891010498
:1019E0001ED4FB49891F084222D029200001341847
:1019F00030684421425AF74B13404352304600F0BE
:101A0000F7FD2078012811D030460026067308998A
:101A100021700068314604F027FC267011B0F0BD3B
:101A20000B9430684425415F002925D411B0F0BDE6
:101A3000410401D500F007FC810401D500F00CFC45
:101A4000E1007218C10401D500F00EFC010501D5BA
:101A500000F027FC010601D500F038FC810501D516
:101A600000F042FCC005E1D530684421425ADA4B0F
:101A70001340435211B0F0BD152109010A917118AC
:101A80000691089BD90310915321C9007118039145
:101A9000014644311A020592DA0209920322120326
:101AA00002929A0307920D960C9511E05022825AE9
:101AB000C74BC01880183A78D20081523978304626
:101AC000FFF786FE3068425F01464431002AADD5FB
:101AD0000A880F27174048D0B900445A109A144278
:101AE00000D18AE10F9441180A88BC4B1A40802328
:101AF00013430B802821794374180A9963185721DE
:101B00008900615C002900D1A8E0FF215431615CAB
:101B100002290E9300D0B4E05021415A09181D78D3
:101B2000EA00561807990F9A0A4200D0DFE0A84948
:101B3000765AAB490E402D21CA00A358991B00D3F9
:101B4000F9E00021A150B34200D9F8E0A900425ABF
:101B5000A44B1A40A44B5A4042520F99490600D454
:101B6000F1E0002E00D00DE116E10188D20628D464
:101B70009A4A1140109A1143018095490918502240
:101B8000805A0818317CC9004018001F0088944909
:101B90000840F062716A08187062002430462146DD
:101BA000FFF716FE307B00288CD0B06A002889D160
:101BB000307B80210143C8B231684C228852347393
:101BC00080E7099A114277D1109A114200D179E742
:101BD0000188824A114080220A4302807C494118D0
:101BE0005024025B8918069E3278D2008B5A7C49B9
:101BF0000B40F36110D0716900290DD0F28804F018
:101C00007EFAF06971690818706100210D9D2846FF
:101C1000FFF7EAFD28680C9D0188099A11420D9E84
:101C200000D04FE7029A1140914200D14AE7015B90
:101C3000674A8218535A6A4C23405352069B1B69C9
:101C4000002B00D115E23E2B00D914E28C5A5D081E
:101C5000089E3340EB180C9D9B0215E25021415A1F
:101C60005B4A821851181A78D2008E5A5C490E408D
:101C70007FD0AB214900625A0B9DA90061580E9399
:101C800086E019788A00835A544D2B40109EC03646
:101C90001E438652835AC9000A185021415A514E98
:101CA000F136334268D04A4B9A185118091F0E88F2
:101CB0004B490E405AD16FE05021415A444A821894
:101CC0005118069C2278D2008B5A45490B40E3619B
:101CD000E288039904F013FA306801883F4A114002
:101CE00080220A430280304600F0BFFCEAE62D2144
:101CF000CA00A35836498919091F0E8838490E4071
:101D0000991B2BD20021A150B3422AD8A900425AD4
:101D1000344B1A40344B5A4042520F99490623D54E
:101D2000A900425A2D4B1A40109BC0331343435213
:101D3000002E1BD130E0A150B34200D806E70F9926
:101D4000490600D50DE7A900425A244B1A40109BC2
:101D5000C03313434352002E14D11DE0A150B342AF
:101D6000D4D90F994906DBD4002E15D02B21C900F8
:101D70000AE000260B9D12E0154BD218565A18495E
:101D80000E4009D0AD214900625A0B9DA90061584F
:101D9000334604F0B4F901E000260B9D0E9B5B2056
:101DA0008000215889192150A800215889192150F3
:101DB0002D20C0002058002804D00B2040012058BE
:101DC000B04213D919780D9E3046FFF70DFD12E091
:101DD00006040000FFFB0000FFFE00000F0F0000E4
:101DE000FF0300000F3F000080A000000D9E306840
:101DF000194603F0FBFC0C9D0F9C200600D461E605
:101E0000780041003068425AFB4B1A40109B1A433D
:101E1000425228217943721817461037D17C012984
:101E20001FD100219162137F002B00D146E663068B
:101E300000D585E0527C012A00D137E6002A00D087
:101E40003CE65021415AED4A801840183978C900C3
:101E5000425AEB4B1A404252425A109B1A4342528A
:101E60002CE605990C421DD15021415AE34B1B1819
:101E70005B183978CC001B191B1F1B88E04C2340D2
:101E8000946AE51A00D2002595629C4271D9516A84
:101E9000C9185162D16AC918D162394603F0A6FC4B
:101EA0000C9D0FE65021465A39780E91C9000B1847
:101EB00001465031049161060F94D0495ED45918FF
:101EC00001918C5BCE490C40936A191B00D2002112
:101ED0009162A34200D885E007990F9B0B4207D17E
:101EE0000E998900435AC44E3340C64E3343435281
:101EF0003421515C01290D9E00D098E1516A0919E5
:101F00000F915162D16A0919D162166A156B114697
:101F10003031B54200D3EFE013463433002D00D109
:101F200041E100261E700E600F9E2C460C9D517CD8
:101F3000012900D0E9E004990988019B5C5256E12F
:101F4000527C012A00D189E0002A00D0B6E5502158
:101F5000415AF94A101840183978C9004018001F32
:101F60000188F14A114001800188109A11430180D3
:101F7000A4E53046FFF72CFC0C9DA3E5C9180B1F08
:101F800001939E5BE84B1E40936A9C1B00D2002489
:101F90009462B34245D9009607990F9B0B4207D034
:101FA0000E998900435AE14C2340E24C23434352AB
:101FB0003421515C01290D9E00D038E1516A009E08
:101FC00089195162D36A9B19D362136A146B9C42BC
:101FD00000D3B9E01346343300251D70002C00D027
:101FE000B4E0B7E0507C012858D000280D9E0F9C2B
:101FF0005FD104980088019B1818001F0188CA4A05
:10200000114001800188109A1143018004980088D2
:10201000195AC54A11401952195A109A11431952A6
:1020200047E0507C01284CD000280D9E0F9C51D1D8
:10203000049804880198025BBB4B1A400253025B70
:10204000109B1A430253049800880A5AB64C224047
:102050000F9C0A520A5A1A430A523BE05022825AF3
:10206000B54B181880183A78D2008018001F0180EC
:1020700024E58B5A07E0DC065B09002C00D15B1ECF
:102080009C028B5A2343109C23438B520188A84AFD
:102090001140AA4A514001800D9E13E5049A108810
:1020A000019B1818001F00210180108819520D9EF5
:1020B0000F9C30460E99FFF78BFB0798044211D016
:1020C000B5E0049B18880022019C225218880A520D
:1020D0000D9E0F9C30460E99FFF77AFB079804423D
:1020E00000D1A4E0306839788900425A8F4B1A40F9
:1020F000904B1A4342529AE0AB1B0B600C9D344646
:102100000F9E517C012900D115E700296FD1049958
:102110000B88019EF15A0E94834C21400E9CF15283
:10212000002C48D03E2C53D801995D5A0495254681
:10213000089C25400E9C66087519AD02049E354327
:102140005D520C9D0F9E52E0E51A1C46134630333B
:102150001D602646537C012B1DD0002B0C9D61D1A8
:102160000F91049B1988019B5C5A00966E4E344077
:10217000009E5C52002E25D03E2E45D8019BCC5AA5
:102180000E943546089C254074086419A4020E9DDF
:102190002C43CC5244E0049B1B880C460199CE5240
:1021A00021460C9D3EE0002119700C9D0F9E517C34
:1021B0000129AAD1BFE6995B109C21430E9C99533B
:1021C0000F9E14E0CC5A109E3443009ECC5228E05F
:1021D000E5066109002D00D1491E019C0F9E890270
:1021E0001D5B0D4310990D431D530C9D0E9C528B8E
:1021F000A3B2314618E0C0460F0F000006040000ED
:10220000FF03000080C00000F5067409002D00D116
:10221000641E019BA402CD5A2543109C2543CD5238
:102220000C9D0F99128BB3B204F056F80D9E3068D6
:1022300039788900425A3D4B30331340109AB032FE
:102240005A4042523EE430684421425A3C4B813B62
:102250001340435211B0F0BD30684421425A394B0B
:102260001340435211B0F0BD30684021435A04245A
:10227000A3434352435A0824A343435210780128EE
:1022800004D1002111703046FFF785FA304600F086
:10229000C1F930684421425A2B4B1340435211B0CC
:1022A000F0BD30684021425A08231343435202468E
:1022B00040329388254C1C409480425A0423134397
:1022C0004352304600F0F2F911B0F0BD30684421BD
:1022D000435A8024A3434352117800290FD030463B
:1022E00000F0E4F911B0F0BD30684421425A184BB7
:1022F00013404352304600F09FF911B0F0BD40301A
:10230000018804230B430380018808230B430380C7
:1023100008991170808A80083C230340536030463E
:10232000FFF739FA11B0F0BDFF0300000F0F0000F6
:102330000F3F000080C000000604000080B00000D5
:1023400080C0FFFFFFDF0000FFEF0000FFF700008D
:10235000FFFD0000F0B583B000281FD004462920FF
:10236000000127187878002804D100203870204612
:1023700000F01CF903267E70206803F0D9F920795B
:10238000002800D100E10640411E03290296019772
:10239000009107D20021002E45D16CE0012528468E
:1023A00003B0F0BDFC2303402746503700221146FE
:1023B000392501267E557E743A603A627A62BA62A5
:1023C000FA743D46173D2E703D46283D2A603D4635
:1023D0002C3D2A603D46303D2A603D463D3D2A70F9
:1023E0003D46403D29703D463F3D2E703D1F2A60D1
:1023F0003D46083D2A603D46153D2A703D46183D44
:102400004E1C2E708D1C3D743B257A55CD1C3826F4
:10241000BD55BA64FA643A65091DA0379942C7D11F
:10242000029E002E27D028252A464A43A6180022BD
:10243000F274317401277774103632617261B261BF
:10244000029E012E17D04E1C2B467343E318DA74FC
:102450001E74029E5F7410331A615A619A61022ED3
:1024600009D0891C4D436319DA7419745F741033F1
:102470001A615A619A610028019F00D184E0009995
:10248000032903D20021002E56D17DE0FC21084013
:102490000F2149016218002319461546673D2B702C
:1024A0001546783D2B6015467C3D2B601546803DDA
:1024B0002B6015468D3D2B701546903D29701546B5
:1024C0008F3D2B7015463F3D2B701546503D2B60C0
:1024D0001546543D2B601546583D2B601546653D0D
:1024E0002B701546683D4E1C2E701546173D2B70FF
:1024F0001546283D2B6015462C3D2B601546303D7A
:102500002B6015463D3D2B701546403D8E1C2E70B0
:102510001360151F2B601546083D2B601546153DB1
:102520002B701546183DCE1C2E70091DA03281421D
:10253000B3D1029E002E27D0282002464A43A2187B
:1025400015231B01D154D51800222A616A61AA61A2
:10255000EA706A70012E17D04D1C06466E43A6190C
:10256000F554F5182A616A61AA61EA706A70029DE1
:10257000022D09D0891C48432018C154C01802619B
:1025800042618261C270427007CC0C3C03F0C6F815
:102590000025257301207870A07A012800D0FEE67E
:1025A0002046FFF7E5F8284603B0F0BD10B582B02D
:1025B00000680D49884201D002B010BD0120C0055D
:1025C0000A490A6802430A600968014001910198BA
:1025D0001F24002120460A46FFF7AAF82046FFF7ED
:1025E0009BF802B010BDC046005C00401C100240C9
:1025F000B0B504464079022801D0FEF74DFB5B20C0
:10260000C5006059012102F027FC605902F0E2FB8D
:10261000B0BD000010B50446407A002806D02B4813
:10262000016806229143016001F019FE5B20C000A1
:10263000205802F0F9FB10BD80B55B21C90040585D
:1026400002F0FCFB80BD10B529221201835C012B36
:1026500001D1022010BD841801730122227000688C
:1026600003F002FE0020207010BD80B55B21C90080
:1026700042585321C9004118104602F001FC80BDA8
:10268000B0B5044629200001215C012901D10220B6
:10269000B0BD251801202870206803F019FD2068BE
:1026A00003F034F800202870B0BD000010B50446D7
:1026B0005B20C000205802F03DFC607A002804D066
:1026C0000248016806220A43026010BD10ED00E0D6
:1026D000F0B585B004468078C007464B4FD0012046
:1026E000039001071A1F10680840029006D1106875
:1026F000084310601068084004900498009201910B
:102700003D4E3068C00513D4039807023068384343
:102710003060FEF7A3FF05463068384208D1FEF767
:102720009DFF401B6428F7D90325284605B0F0BD5E
:10273000032528022F4B1968014012D0626802401D
:1027400091420ED00398000419681A6802431A6077
:102750001A6882431A600846284A10401860C80761
:102760003AD1186825490840616801431960029808
:10277000002804D1009A10680199884310602068ED
:10278000C10707D181060DD4810313D4002540056C
:10279000CBD518E0196903229143A2680A431A6154
:1027A0008106F1D5196910229143E2680A431A6142
:1027B0008103EBD519698022914362690A431A614A
:1027C00000254005B1D5186940218843216901439E
:1027D0001961284605B0F0BDFEF740FF0646604F80
:1027E000044B18688007BCD4FEF738FF801BB84242
:1027F000F6D99AE72010024000700040FFFCFFFF6E
:10280000F0B581B0002847D00446534A1368012030
:1028100003408B4208D213680126B3430B43136075
:10282000126832408A4238D1009121688A074B4BA6
:1028300011D54A0707D507221202484B1B681343DC
:10284000464A1360454B1A68F0239A43A368134322
:10285000424A1360414BC90722D13F49086801260B
:102860003040009A904205D90868B0430860086873
:10287000C00712D12078400706D50720000219684A
:102880008143E068084318601A681007810F3548D3
:10289000022912D2044650E00126304601B0F0BDB4
:1028A000616803290DD01A1F02290FD0012912D106
:1028B000126892030646F0D511E0032926D12A4C6E
:1028C0003BE01A6B92030646E7D508E012689201D6
:1028D0000646E2D503E0126892070646DDD5186881
:1028E0000326B04308431860FEF7B8FE07461C4DA8
:1028F0001A4B18680C210140606880008142ACD0FE
:10290000FEF7ACFEC01BA842F2D9C6E70321CB03F9
:102910001249896A0F240C401449095D94021A4037
:10292000240F134D2C5D9A4202D033049A4200E0EA
:102930000D4803F0DBFD4443084B18680006000F08
:102940000C49085CC4400C4804600320FEF7A4FE58
:102950000026304601B0F0BD0020024004100240C5
:102960008813000000127A00006CDC020267000885
:10297000F2660008E26600082800002070B586B004
:1029800015460C460320049002200290002003907C
:10299000059001200102019140040B4E3168014372
:1029A000316031680140009100980920C00601A9FA
:1029B000FEF756FD2C437F200006103E3168814310
:1029C0002143316006B070BD14100240F0B587B0ED
:1029D00004460120002C00D145E204902078C00775
:1029E000F94E05940CD071680C200140042900D0E8
:1029F00090E03068800303D56068002800D120E1B2
:102A00002078800721D570680007800F0ED070688D
:102A10000C210140082900D09DE00320C00371680B
:102A200001400120C003814200D094E0306880075B
:102A3000059C03D5E068012800D002E13068F82148
:102A400088432169C90001433160059C2078000753
:102A500024D42078400737D42078C00600D4D3E0AF
:102A600005984069411D00D1C2E0012800D030E145
:102A7000706B042101437163706B01210143716329
:102A8000FEF7ECFD0546706B800700D5B4E0FEF75D
:102A9000E5FD411B03200229F5D9E4E1706AE169F3
:102AA000002900D181E0012108437062FEF7D6FDC4
:102AB0000546706A8007CCD4FEF7D0FD401B022883
:102AC000F7D9032007B0F0BD012003900107F0699A
:102AD0000840029006D1F0690843F061F0690840AF
:102AE000069006980191E14F3868C0054AD40398D2
:102AF0000402386820433860FEF7B0FD05463868A8
:102B000020423FD1FEF7AAFD401B6428F7D90320DD
:102B100007B0F0BD71680140082908D10320C00347
:102B20007168014001200004814200D161E76168C1
:102B300001204704002900D117E1052900D12BE12C
:102B4000012900D12CE1010432688A4332608104FA
:102B50003068884327E13068059CE168002936D059
:102B6000012108433060FEF779FD05463068800793
:102B700000D563E7FEF772FD401B0228F6D903205B
:102B800007B0F0BD05988068002800D1B6E00528A0
:102B900000D1C9E0012800D1CAE0306A0399884316
:102BA0003062306A04218843C5E0012188437062A5
:102BB000FEF754FD0546706A800700D449E7FEF72A
:102BC0004DFD401B0228F6D9032007B0F0BD0121BE
:102BD00088433060FEF742FD05463068800700D428
:102BE00033E7FEF73BFD411B03200229F5D93AE10B
:102BF000706B042188437063706BF82188430599DA
:102C00008969C900014371630598007880060BD576
:102C100071680C2001400C2939D1706B800303D5F9
:102C20000598006A01280CD10598446A002C00D14F
:102C3000E1E070680C210140082905D1012C00D089
:102C4000C4E0049807B0F0BD012002063168049288
:102C5000914331604706FEF701FD0546022C0BD17A
:102C6000049C3068384200D1DEE0FEF7F7FC411BDF
:102C700003200229F5D9F6E03068384200D1BAE0E5
:102C8000FEF7ECFC411B03200229F5D9EBE071684B
:102C90000140082905D10320C00371680140814229
:102CA000BBD0706B0599096A002900D1A9E0012108
:102CB0000A04104370634C04FEF7D0FC0546706BA9
:102CC0002042B1D1FEF7CAFC411B03200229F6D9EC
:102CD000C9E0706B042101437163706B012188436B
:102CE0007063FEF7BBFC0546706B80078CD5FEF762
:102CF000B5FC411B03200229F6D9B4E0306A0399E0
:102D000088433062306A042188433062584CFEF7B1
:102D1000A5FC0546306A80071DD5FEF79FFC411BC8
:102D20000320A142F6D99EE0306A042101433162BA
:102D3000306A0399084330624D4CFEF78FFC05461C
:102D4000306A800707D4FEF789FC401BA042F7D900
:102D5000032007B0F0BD02980028059C00D07BE658
:102D6000F06901998843F06176E6010432688A438C
:102D700032608004316881433160FEF76FFC0546A4
:102D8000059C3068384200D13AE6FEF767FC411BEB
:102D900003206429F5D966E0810432680A43326071
:102DA0000104306808433060FEF758FC054630687F
:102DB000384200D024E6FEF751FC401B6428F6D9C7
:102DC000032007B0F0BDC046001002400320C2033C
:102DD00070680240F16A059CA36A9A42049D0DD175
:102DE0000F221140236B994208D191040840E16AF7
:102DF0008842284637D1002007B0F0BD284607B0EA
:102E0000F0BD01210A04904370634C04FEF726FCD8
:102E10000546706B204200D106E7FEF71FFC411B00
:102E200003200229F5D91EE0F06A0F218843059A94
:102E3000116B0143F1627B20C00371688143D06A4A
:102E40000843916A01437160306820433060FEF7A7
:102E500005FC044630683842CDD1FEF7FFFB011B6C
:102E600003200229F6D907B0F0BDC046007000402B
:102E700088130000401E010E01D001207047074951
:102E8000074A5060074803680B4003218907591817
:102E9000016000209060072111607047FFFFFF0074
:102EA00010E000E020ED00E070477047B0B53C2234
:102EB000825C012A01D10220B0BD02463C320223CD
:102EC0005370006843687024A3430D681D438468F1
:102ED000456001239D07A84205D0994DA84202D024
:102EE000984DA84204D18025AC43496821438160B4
:102EF000002010705370B0BD70B5002828D0044673
:102F000005463C356878002804D10020287020460A
:102F100000F062F80220687021680E6801208307C3
:102F2000994205D0864A914202D0864A914211D1F7
:102F300070229643A2683243244EB1420EDC99427D
:102F400015D0804B994212D0DE4B99420FD03AE017
:102F5000012070BD32461D4EB142F0DD784B9942E2
:102F600005D01B4B994202D01A4B99422BD1032317
:102F70001B029A432369134380229343A2691A4395
:102F80000A60E268CA6262688A626D4A914205D04C
:102F90000F4A914202D00F4A914201D162690A63FD
:102FA00048610A69D20702D00A6982430A61A8729D
:102FB000A870E87028716871A871E8712872687249
:102FC0006870002070BD1346D6E7C046FF2B014055
:102FD0000048014000440140F0B587B00446016854
:102FE000B84881422CD05748814255D001208207F1
:102FF00091424FD13C490A6802430A603D4D00228C
:10300000202100918026C7024102394B14332B60E6
:103010006A60AA60EE6029616F610099A961EA6146
:10302000314909680140029102982846FEF70EF9DD
:10303000002801D0FDF730FE65626C6207B0F0BD7C
:1030400001242102284802680A43026002680A40FB
:10305000029202996104083802680A43026000681B
:103060000840019004200690002505950495022053
:1030700003901020029001980920C00602A9FEF7D3
:10308000EFF91326304621462A46FEF751FB30461B
:10309000FEF742FB07B0F0BD1348026802210A4365
:1030A0000260124D00222020009080260120830221
:1030B00000020F4F2F606A60AA60EE6028616B61AA
:1030C0000098A861EA6108480068084002900298E8
:1030D0002846FEF7BBF8002801D0FDF7DDFD65624C
:1030E000A5636C6207B0F0BD1C100240C40A00204A
:1030F00044000240800A00203D21415C012918D192
:1031000001463D3102220A700068C26801210A436B
:10311000C2608A07904205D0CA4A904202D0CA4A89
:10312000904208D1826807231340062B03D1002068
:1031300070470120704702680A4302600020704710
:10314000002C014000040040F0B53C22825C012AC2
:1031500001D10220F0BD02463C3202235370504E92
:103160003346773B0468A0681840A0600D680023D0
:103170004F2D1EDC1F2D35DD202D37D0302D35D0C5
:10318000402D00D086E0206A256A0126B5432562DD
:10319000A569F026B543CE6836012E43A6610A25FF
:1031A000A843496801432162A068472101433020B8
:1031B00069E06F2D26DD01204703BD4240D00003AA
:1031C000854218461AD0702D64D1A06830404D68F1
:1031D0008E68C9682E43090231430143A160A0688B
:1031E000772139E0002D01D0102D53D1A068702136
:1031F0008843054307202843A06018461370012127
:103200005170F0BD502D29D0602D43D1256A10207A
:10321000C043266A064026620F263603A769B743D5
:10322000CE6836033E43A661A026B543496809012E
:1032300029432162A16867250D430540A56024E06C
:10324000A56835404E688F68C9683743090239431D
:103250002943A1608003A168014315E0206A256A23
:103260000126B5432562A569F026B543CE6836012F
:103270002E43A6610A25A843496801432162A0683C
:103280005721014320208143A1601846137001217A
:103290005170F0BD0120137001215170F0BDC04686
:1032A000FF00FFFF704700000168A04A914200D074
:1032B0007047007F0128FBD10348C188491CC180A9
:1032C0007047C04600200040FC010020F0B582B0ED
:1032D0003C23C35C012B02D1022002B0F0BD0346A7
:1032E0003C330224E241032A00D9A4E07A44127953
:1032F00052009744012E52730268146A156A012025
:1033000085431562CD68019560C900969769860767
:103310000839B24205D0B94EB24202D0B84EB242DC
:1033200002D1032087430098074310461830F02647
:10333000B743019E3601F6B2BE1996610A263540A2
:10334000B4436419146294690C25AC439461896890
:1033500069E00068026A046A1025AC4304624C68A4
:103360002402374D2540CC682403A4B26419F32508
:103370002D028669AE43264386610C682401A02590
:103380002C40AA43121902620322920284699443D8
:10339000846189680902183045E00068026A0124E6
:1033A0002402056AA54305624C68F025AC43CD684C
:1033B0002D01EDB22C19C569F326B5432543C5612E
:1033C000052464020D682D022540A24352190262B1
:1033D000C2690C24A243C261896823E00068026AC2
:1033E00001242403056AA54305624C682402144D98
:1033F0002540CC682403A4B26419F3252D02C669C4
:10340000AE432643C661052464030D682D032540A1
:10341000A2435219026203229202C4699443C46116
:10342000896809021C3002680A43026000200021FA
:10343000197002B0F0BD01200021197002B0F0BD7A
:10344000000FFFFF002C01400004004070B5002871
:1034500028D0044605463C356878002804D1002071
:103460002870204600F064F80220687021680E6819
:1034700001208307994205D0604A914202D0604AF8
:10348000914211D170229643A2683243244EB14238
:103490000EDC994215D05A4B994212D0234B9942D7
:1034A0000FD03AE0012070BD32461D4EB142F0DD32
:1034B000524B994205D01B4B994202D01A4B99426C
:1034C0002BD103231B029A43236913438022934386
:1034D000A2691A430A60E268CA6262688A62474A5D
:1034E000914205D00F4A914202D00F4A914201D138
:1034F00062690A6348610A69D20702D00A69824395
:103500000A61A872A870E87028716871A871E871E2
:10351000287268726870002070BD1346D6E7C046F6
:10352000FF2B0140004801400044014000200040C2
:1035300070470000B0B503463E33002906D0082985
:1035400010D0042911D15C1D5A1C10E01C780122F6
:1035500054401D79554025432C064AD102221A7049
:103560001A7119E09C1D9A1C01E0DC1DDA1C15780B
:1035700001225540247854402C43240639D102229C
:10358000082904D0042905D15A705A7104E09A70B0
:103590009A7101E0DA70DA7102230A46DA41032AED
:1035A00021D89200144B9A580068C3681343C36033
:1035B0001F221140012213468B40016A9943016288
:1035C000016A194301629107884205D00B4988427C
:1035D00002D00B49884208D1816807230B40062B93
:1035E00003D10020B0BD0120B0BD016811430160CE
:1035F00000221046B0BDC04614670008002C0140F0
:1036000000040040F0B585B004460068C568022794
:10361000294639404A424A410169049139404B42A6
:103620004B41134380210291C9430391002B13D1D5
:1036300003997E310161012121778069800703D0E0
:103640002046FFF731FE05E0204600F0B8F820469E
:1036500000F05DFA0020207701260422294611405F
:103660004842484104994907314600D501460320A4
:1036700000020190002916D10092206803997C3144
:103680000161277780690199084203D02046FFF73E
:103690000BFE05E0204600F092F8204600F037FAD5
:1036A00000202077009A082729463940484248419F
:1036B00004990907314600D50146002913D1206835
:1036C0000399783101612277C069800703D02046D1
:1036D000FFF7EAFD05E0204600F071F8204600F013
:1036E00016FA0020207710212940484248410499C9
:1036F000C906314600D50146002914D12068039936
:10370000703101612777C0690199084203D02046D2
:10371000FFF7CAFD05E0204600F051F8204600F012
:10372000F6F90020207701212940484248410499B8
:10373000C907314600D00146002906D12068039907
:103740007F310161204600F0D1FA029929404842B8
:10375000484104990906314600D50146002905D1A2
:103760002068039901612046FFF79EFB4021294014
:103770004842484104994906314600D5014600298E
:1037800006D12068039940310161204600F043FBD7
:1037900020200540684268410499890603D4002E20
:1037A00004D005B0F0BD0646002EFAD1206803997A
:1037B000603101612046FFF778FB05B0F0BD70472E
:1037C000F0B582B03C23C35C012B02D1022002B0D1
:1037D000F0BD03463C330224E241032A71D8C046BF
:1037E0007A44127952009744012339500268106AD2
:1037F000156A0126B5431562A0438E6806435068DA
:103800000F689569BE4CA242019706D0BD4CA242FA
:1038100003D0BD4CA24200D0D6E00C24A643CC6815
:103820000427BC433443B64EB24200D0D0E0D5E0CA
:103830000268146A106A1025A8431062202084438D
:1038400088680001204356680C6801949469AC4D67
:10385000AA423BD00746AA4242D147E00268146A16
:1038600001200502166AAE4316624002844388684E
:103870000002204356680C680194D569A04CA2420E
:1038800054D00746A2425DD162E00268156A012465
:103890002003166A8643166250688E6801960E6889
:1038A0000096D769964EB24205D0964EB24202D0EB
:1038B000954EB2426AD1A603B0434E69B6010643A3
:1038C00065E001200021197002B0F0BDC027B843A7
:1038D000CF683F014025AF43894D0743AA4205D039
:1038E0008848824202D08848824208D10320800260
:1038F000864348698D6980003043AE000643104618
:103900001830566073252D02AC43019D2D022543CE
:1039100095614C68946317620124E50296692E4311
:103920009661A4029569A54395614AE00327BF0209
:10393000B8433D4CFF3CCF683F022740E74C07436C
:10394000A24205D0E648824202D0E648824208D12F
:1039500003200003864348698C6900013043260137
:10396000064310461C3056607324A543019C254332
:10397000D5614C68D4631762D46908252543D561A5
:10398000D4690425AC43D461096944E00646104675
:103990001C30566073263602B743009E36023E4303
:1039A000D6614E6816646603B543019E36032E4306
:1039B0001662E502D6692E43D661A402D569A543F5
:1039C000D5610969090226E03446C44EB24205D0E9
:1039D000C34EB24202D0C34EB24207D103263602D2
:1039E000B0434E698F6906433E4300E00646019F9F
:1039F0001046183056607326B5433D4395614D68B7
:103A000055631462946908252543956194690425DA
:103A1000AC439461096902680A43026000200021F6
:103A2000197002B0F0BDC046FFFBFFFF70B5002863
:103A300028D0044605463C356878002804D100208B
:103A40002870204600F062F80220687021680E6835
:103A500001208307994205D0A04A914202D0A24A90
:103A6000914211D170229643A26832439A4EB142DC
:103A70000EDC994215D09C4B994212D0CD4B994205
:103A80000FD03AE0012070BD3246934EB142F0DDD6
:103A9000924B994205D0924B994202D0914B994258
:103AA0002BD103231B029A432369134380229343A0
:103AB000A2691A430A60E268CA6262688A62874A37
:103AC000914205D0864A914202D0864A914201D164
:103AD00062690A6348610A69D20702D00A698243AF
:103AE0000A61A872A870E87028716871A871E871FD
:103AF000287268726870002070BD1346D6E7C04611
:103B0000002C0140004801400044014070477047CC
:103B10007047000070B50C46054601463E31002C4A
:103B200008D0082C0CD0042C18D1481C007802288E
:103B300018D009E008780228084616D1022070BD86
:103B4000881C007802280DD0082C0DD0042C1DD123
:103B5000481C06780120012E1DD10AE0C81C0078FF
:103B60000228F1D1022070BD881C06780120012EA8
:103B700011D1002A0FD0002B0DD00226002C0BD023
:103B8000082C0BD0042C0BD14E700AE0C81C067810
:103B90000120012EEDD070BD0E7002E08E7000E0AD
:103BA000CE7002262146F1410329F4D879440979DF
:103BB00049008F4401172D43686A44498162686A4D
:103BC0004349C162686A43490163686A2E683436B2
:103BD00011463246FDF778FB014601200029DAD173
:103BE000410240E0A86A39498162A86A3849C16245
:103BF000A86A38490163A86A2E68383611463246E9
:103C0000FDF762FB014601200029C4D181022AE0B0
:103C1000E86A2E498162E86A2D49C162E86A2D4945
:103C20000163E86A2E683C3611463246FDF74CFBCC
:103C3000014601200029AED1C10214E0286B2349BE
:103C40008162286B2249C162286B22490163286B7B
:103C50002E68403611463246FDF736FB01460120FC
:103C6000002998D101032868C2680A43C2601F2155
:103C70000C4001210A46A240036A93430362036A8F
:103C800013430362144A90420DDD144A904205D05A
:103C9000134B984202D0134B984211D1CB03446C82
:103CA0001C43446403E08A07904202D00E4A9042CB
:103CB00006D1826807231340062B01D1002070BD76
:103CC00002680A430260002070BDC046014300083C
:103CD00069430008A1430008FF2B0140002C01406C
:103CE000004801400044014000040040B0B50068B5
:103CF000AE49884200D0B0BD2F48012181702F4AC3
:103D00001378012B06D12E4B5C78DD78A54201D9C2
:103D1000641C5C701278012A06D1294A93781479C0
:103D20009C4201D95B1C93708288521C828092B2A3
:103D3000D2087D2ADFD302784A40027000228280B6
:103D40004170C3881C462D3C0B2C07D35A1E2C2ACD
:103D500001D2022202E0002B0A4601D119490A7061
:103D600017490A789207C6D5C278521CC270D2B2DF
:103D70003C2AC0D30022C270487A00280CD088792F
:103D80000028B8D00B7A5B1C0B72DBB28342B2D333
:103D90000846083013460AE048790028ABD0CB79B2
:103DA0005B1CCB71DBB28342A5D3C81D01234B72D0
:103DB0000270B0BD00200040FC010020F401002092
:103DC000EA0100202400002070B504463C20205C5D
:103DD000012801D1022070BD25463C3502206870C3
:103DE00001262E70206800F007FB0028304603D023
:103DF000002129706E7070BD2068C1684022914317
:103E0000C16001218903C2688A43C2600020002189
:103E100029706E7070BD7047FEE70000B0B584B0C9
:103E2000242119480124445400218162802208235E
:103E3000164D056041608160C1600461436181612C
:103E4000C261A1020162FDF74FF8002801D0FCF722
:103E500023FF0620039002200190200302900A48CD
:103E600001A9FCF775FF002801D0FCF715FF03201E
:103E70000190054801A9FCF76BFF002801D0FCF771
:103E80000BFF04B0B0BDC046FC0900200024014077
:103E900070B582B0C7480168012421430160006801
:103EA00020400190019809250026284621463246E7
:103EB000FDF73EFC2846FDF72FFC0B252846214642
:103EC0003246FDF735FC2846FDF726FC02B070BDF2
:103ED000F0B587B0002406940126B105B548026804
:103EE0000A43026002680A40019201997104026863
:103EF0000A43026002680A4001920199B104026813
:103F00000A43026000680840019001980920C00639
:103F10000090032529462246FDF798FB0C4802270E
:103F200039462246FDF792FB0594049403960295C8
:103F300002AD00982946FDF793FA0594049703967D
:103F4000029703482946FDF78BFA07B0F0BDC0463B
:103F50000004004810B584B0E84800248461124988
:103F60002F22124B036042608460C1600461FEF73F
:103F7000C3FF002801D0FCF78FFEE048FFF766FA88
:103F8000002801D0FCF788FE0394029401200190E0
:103F90000094DA4869462246FFF798F9002801D0D4
:103FA000FCF77AFE04B010BDE703000000200040DB
:103FB000F0B595B0394800248461A3490126B207C1
:103FC000009244C00460416084600E940D940C948F
:103FD0000994089407940694059404940394029415
:103FE00001940838FEF788FF002801D0FCF754FE42
:103FF00030030B9029480BA9FFF7A6F8002801D041
:10400000FCF74AFE2548FFF711FD002801D0FCF718
:1040100043FE099420270897204808A9FEF746FF89
:10402000002801D0FCF738FE059403940294602028
:1040300001901A4D01A928462246FFF7C1FB00282E
:1040400001D0FCF729FE10942868594988420ED007
:104050000099884220D1700456490A6802430A60D8
:10406000096801400F9110970F9802260AE070042A
:1040700050490A6802430A60096801400F914020D4
:1040800010900F9814961394129402201190092006
:10409000C00610A9FDF7E4F915B0F0BD2C0E002004
:1040A000F0B599B000241294119410940E940D94CC
:1040B0000C940B940A94099408943C4884616249D6
:1040C00001263B4F076046608460C160046107942D
:1040D000069405940494039402940194FEF70CFF53
:1040E000002801D0FCF7D8FD30030F902F480FA90E
:1040F000FFF72AF8002801D0FCF7CEFD2B48FFF788
:1041000095FC002801D0FCF7C7FD10200B9004207F
:104110000A9026480AA9FFF757FE002801D0FCF7AD
:10412000BBFD09940894214808A9FEF7BFFE0028AA
:1041300001D0FCF7B1FD0594039402946020019036
:104140001A4D01A928462246FFF73AFB002801D064
:10415000FCF7A2FD14942868B8420FD0B10788423A
:1041600021D1700413490A6802430A6009680140BA
:10417000139120201490139802260AE070040D4930
:104180000A6802430A6009680140139140201490B4
:104190001398189617941694022015900920C006BB
:1041A00014A9FDF75DF919B0F0BDC046740E0020EA
:1041B000000400401410024080B51048104900224D
:1041C00000F0A7FC002801D0FCF766FD0B480D4964
:1041D00000F0E0FE002801D0FCF75EFD07480A4928
:1041E00000F067FA002801D0FCF756FD034800F004
:1041F000E8FE002801D0FCF74FFD80BD3807002005
:10420000080000202C0000205001002080B564210F
:10421000642800D308460C4A4243104602F066F96F
:104220000149088080BDC046BC0E002080B56421D5
:10423000642800D30846044A4243104602F056F967
:104240000249086080BDC0465F090000C00E002022
:10425000FEE77047704780B5FDF704FA80BDB0B542
:1042600098B000251195109512950F950E950D9506
:10427000012013900C9031210B9117950224149476
:1042800001051691010415911021119110900595C9
:104290000495039502950BA8FEF798FB002803D020
:1042A000EFF3108072B6FEE70A950995089407208F
:1042B000079007A801242146FEF7A2FA002803D0A0
:1042C000EFF3108072B6FEE706956004019001A836
:1042D000FEF7FEF9002803D0EFF3108072B6FEE778
:1042E000A10600200246FEF749FB18B0B0BD70479A
:1042F00080B50248FFF786F980BDC046E40D002076
:1043000010B5446A21463E31626A824210D0A26AE8
:10431000824214D0E26A824219D0226B82421DD1BD
:10432000082222778069002818D10120C87015E082
:10433000012222778069002810D10A700EE0022243
:1043400022778069002809D10120487006E0042204
:1043500022778069002801D1012088702046FFF76C
:10436000D6FB0020207710BD10B5446A616A8142F7
:104370000AD0A16A814209D0E16A814208D0216B4A
:10438000814207D1082004E0012002E0022000E081
:10439000042020772046FFF7BBFB0020207710BDCC
:1043A00010B5446A21463D31626A82420BD0A26A4E
:1043B00082420CD0E26A82420ED0226B824210D03E
:1043C0000120087011E00120487020770DE00120E5
:1043D00088700220207708E00120C8700420207730
:1043E00003E001200871082020772046FEF75AFFDD
:1043F0000020207710BD000070B5826877239A43B3
:1044000018C907252646AE4316431E43866004227C
:10441000D4410839072C0FD80022C0467C442479A7
:104420006400A74403030303050C1F34104670BD4A
:10443000052B3AD1012070BD0122104670BD036AE0
:10444000046A0125AC4304628469F025AC430D691C
:104450002D01254385610A24A3438968194301621C
:10446000104670BD036A046A1025AC4304620F2431
:1044700024038569A5430C6924032C438461A0248B
:10448000A3438968090119430162104670BDFF23E7
:104490001B0284689C438B68CD6809691D4309022F
:1044A000294321438160104670BD036A046A0125D7
:1044B000AC4304628469F025AC43096909012143D6
:1044C00081610362104670BDF0B581B00C460546AF
:1044D0005720C1006F58002F16D0142060432E18AB
:1044E000F069002809D06918896828226243891870
:1044F000096AFCF72FF800290AD0852080000026E1
:104500003E50304601B0F0BD0226304601B0F0BD4D
:104510001C36304600260660284621463246334681
:1045200000F012FD304601B0F0BD70B504465720D2
:10453000C600A559204600F0CEFB832189006850B3
:10454000A05900280AD0A2196918812080002818D3
:1045500000685268D2689047002070BD022070BD8C
:10456000B0B50446812100F0FBFA0025E562012187
:10457000204600F0F5FA5B2080002550822120467D
:1045800000F0EEFA25645720C0002158002907D01A
:104590002418606840688047206800F03BFF256071
:1045A0000020B0BD10B55721C90042185368002B38
:1045B0000BD04158012040020C182078FF2804D06D
:1045C00062789B689847FF202070002010BD000093
:1045D0000A21018000487047EC000020432101803F
:1045E0000048704764000020432101800048704764
:1045F000A80000204321018000487047F8000020F7
:10460000F0B583B00446007C0126750200280295AF
:1046100000D0402581210227204601913A462B46B1
:1046200000F0B4FBE662204631463A462B4600F0E5
:10463000ADFB5B2080002650822103220823204608
:1046400000F0A4FB26648720800000F0E5FE5721DF
:10465000C9006050002813D06118019A9200851893
:1046600048680068804700262E616E61207C002823
:10467000029B00D040232A680121204600F09AFBCB
:10468000304603B0F0BD10B55721C9004258002A8A
:1046900005D0037C0121002B03D0402302E002203F
:1046A00010BD4B028124A400125900F083FB0020AE
:1046B00010BD002904D0AF22920081500020704725
:1046C000022070475722D2008058812292008150E8
:1046D000002070475723DB00C0584123DB00C15046
:1046E000C018826000207047F0B583B00E460546C2
:1046F0005720C0002F5802A80024047001A804808D
:10470000A7208000291830786022024011D0202A8A
:1047100044D1F288002A19D0000621D40120400299
:1047200038184270717801702846394600F07DF8DB
:1047300026E070780B2820D00A2824D000282DD11C
:10474000087803282AD101A9022221E07078096A99
:104750008B680024314622469847204603B0F0BDBE
:104760007078096A8B6839469847F2882846394636
:1047700000F07AF8204603B0F0BD087803280DD188
:10478000204603B0F0BD0878032807D102A9012212
:10479000284600F069F8204603B0F0BD28463146AF
:1047A00000F039F80224204603B0F0BD80B557214F
:1047B000C9004158002907D04122D2008918CA688F
:1047C000002A03D0012080BD022080BD0122CA60E2
:1047D0008B6803630A689BB2812100F0B5FB00205F
:1047E00080BD80B5AD22920082585268904700206B
:1047F00080BD10B513460A460024214600F0DAFABF
:10480000204610BD10B513460A460024214600F08C
:104810009BFB204610BD10B50446802100F068FBCC
:104820000021204600F064FB10BDB0B513460A46D7
:10483000572189004350A524A400032505514118A0
:104840004B600024214600F0B5FA2046B0BD10B5FB
:10485000A5218900052242500024214622462346F4
:1048600000F0A8FA204610BD10B513460A46A5214F
:10487000890002244450C36103620024214600F0F1
:1048800063FB204610BD10B5A521890004224250CB
:10489000002421462246234600F056FB204610BD48
:1048A00010B50A4603A02A4C214600F0DBF820464A
:1048B00010BDC04643444320436F6E6669670000E5
:1048C00012200880004870473C01002010B50A46BD
:1048D00003A01F4C214600F0C5F8204610BDC0467D
:1048E00043444320496E746572666163650000004D
:1048F00004200880004870476001002010B50A4677
:1049000003A0134C214600F0ADF8204610BDC04670
:1049100053544D6963726F656C656374726F6E6931
:104920006373000010B50A4603A0094C214600F04D
:1049300099F8204610BDC04653544D333220566975
:10494000727475616C20436F6D506F72740000005B
:104950007402002010B51A2008804048016882685F
:10496000521879D041683E4800234376C375437599
:10497000C3744374C3734373C3724372C37143718B
:10498000C3700F2313401407640F052C01D3373372
:1049900000E030330374540F130F052C01D3373369
:1049A00000E0303383704C0F0B0F052C01D33733ED
:1049B00000E03033837413065C0F1B0F052C01D30A
:1049C000373300E03033837313055C0F1B0F052C66
:1049D00001D3373300E03033037313045C0F1B0F34
:1049E000052C01D3373300E03033837213035C0F9F
:1049F0001B0F052C01D3373300E030330372130251
:104A00005C0F1B0F052C01D3373300E0303383716B
:104A10001201530F120F052B01D3373200E0303251
:104A200002710A03530F120F052B01D3373200E036
:104A3000303202760A02530F120F052B01D33732A0
:104A400000E03032827509014A0F090F052A01D3AF
:104A5000373100E030310175014810BDACF7FF1F60
:104A60006401002070B5002852D00378002B14D0C8
:104A7000041D0023E51E2D78002D10D0A51E2D78D5
:104A8000002D0ED0651E2D78002D0CD0251D1B1D70
:104A90002478002C2C46EDD107E0002305E001240A
:104AA00002E0022400E003242343DBB25B009B1CF2
:104AB000138003224A700B700378002B28D0021D4C
:104AC0000220C5B24B5501231D4300244C55D51E71
:104AD0002D78002D1CD0861CF6B28D551E438C55AA
:104AE000951E2D78002D13D0061DF6B28D551E4350
:104AF0008C55551E2D78002D0AD0861DF6B28D5589
:104B00003343CC54141D08301378002B2246D8D1DF
:104B100070BD10B5002811D0A7239B00C3189C6955
:104B2000002C01D000249C61002900D05961027042
:104B30000121197000F0D6F8002010BD022010BD30
:104B400080B50B2292018058FCF783FE042802D323
:104B50000220C0B280BDC100F548C840C0B280BDCF
:104B600080B50B2292018058FCF74CFE042802D33A
:104B70000220C0B280BDC100ED48C840C0B280BDB7
:104B8000F0B581B00446A5208000271800290CD07C
:104B9000386A42690220002A05D03B7A032B02D1F1
:104BA00020469047002001B0F0BD3868002816D09C
:104BB000042814D0022816D1206A666AB0421CD993
:104BC000801B206283B2204611461A46FFF71AFE68
:104BD000002120460A460B4600F0ECF803E0802155
:104BE000204600F085F9387B012803D10020387376
:104BF00001B0F0BD002001B0F0BDE56928463146A6
:104C0000FBF7A8FCB54212D3002910D17868854281
:104C10000DD20025204629462A46FFF7F3FD7D6088
:104C2000204629462A462B4600F0C4F8DBE7386ABE
:104C3000C168002904D0387A032801D1204688476A
:104C40008021204600F054F92046FFF700FECAE715
:104C500070B50546A5208000281800290CD0026AEE
:104C600092690224002A05D0007A032802D128463E
:104C700090470024204670BD01680024052915D006
:104C80000329F7D10B2149016B181E6859688E4220
:104C900013D9701A1860884200D3084683B2284698
:104CA00011461A46FFF7A5FD204670BD0460284650
:104CB000214600F01DF9204670BD016A09690029EE
:104CC00004D0007A032801D1284688472846FFF7F8
:104CD000DAFD204670BD80B50B2292018058FCF7AA
:104CE000E8FD80BD70B50B218A011D4981505B2311
:104CF000DB00C85000234B814B720223CB71194B50
:104D00000B604123DB008B8086180846FDF722FBF1
:104D1000002801D0FBF7C0FF30680024182321468B
:104D20002246FCF739FD3068802158232246FCF7E3
:104D300033FD30688121C0232246FCF72DFD306809
:104D400001210D022B4610332246FCF725FD306869
:104D5000822122462B46FCF71FFD204670BDC0462F
:104D6000080B0020005C00407F220A4028235343A8
:104D70000B2292018058C018090602D51230007823
:104D80007047A921490040180078704710B51446B3
:104D90000B22920180581A462346FCF793FD042803
:104DA00002D30220C0B210BDC1006F48C840C0B2DB
:104DB00010BDC04610B50B24A4010059FCF7AFFD8F
:104DC000042802D30220C0B210BDC1006648C8400A
:104DD000C0B210BDF0B581B004460025402629467A
:104DE0002A463346FFF7D2FF2B20C0000127275069
:104DF0002018C660802120462A463346FFF7C6FFAA
:104E0000A52080002550201807726662A761056101
:104E10006560416A002904D0006A4268002120468A
:104E20009047002001B0F0BDA7218900425C042A10
:104E300002D14018417801700020704780B5A72149
:104E40008900425C032A05D141188969C969002992
:104E500000D08847002080BD01740020704700000A
:104E600080B50B2292018058FDF7EDFB042802D398
:104E70000220C0B280BDC1003B48C840C0B280BD66
:104E8000F0B581B00446A5208600A7193D4614352B
:104E9000284600F06BF80120A0511448205A786091
:104EA000397D1F20084002280AD001280FD0002891
:104EB00014D12046294600F089F8002001B0F0BD49
:104EC0002046294600F0BCF9002001B0F0BD204684
:104ED000294600F067FA002001B0F0BD80200140B3
:104EE000204600F005F8002001B0F0BDAE02000041
:104EF00080B50B2292018058FCF725FD042802D3CF
:104F00000220C0B280BDC1001748C840C0B280BDF9
:104F100080B50B2189014058FDF7B2FB042802D36C
:104F20000220C0B280BDC1000F48C840C0B280BDE1
:104F300000020102A7218900425C04234354401867
:104F4000427000207047000010B50B24A4010059E6
:104F5000FCF726FD042802D30220C0B210BDC10018
:104F60000148C840C0B210BD000201020A780270B8
:104F70004A7842708A78CB781B029A1842800A7964
:104F80004B791B029A1882808A79C979090289189B
:104F9000C1807047002904D0AD22920081500020CA
:104FA00070470220704780B5AD2292008258002AD7
:104FB00005D012689047411E8841400080BD022004
:104FC00080BD80B5FFF7A4FF002080BD70B582B022
:104FD0000D460446097860200840A721890066181C
:104FE00000280CD0402802D0202800D078E0B069FA
:104FF0008268204629469047002002B070BD68783C
:10500000092800D96CE0C046784400794000874404
:105010000414671D6723406755613078401E0228DD
:105020005ED8E88802285BD1B068411E8841400004
:10503000E06021460C31022272E03078401E0228E6
:105040004ED868880128D7D1002003E0688801285D
:10505000D2D10120B060E6E0A888002840D1E888DD
:1050600000283DD168887F283AD83178032937D085
:10507000B070C5B220462946FFF7F2FE2046FFF782
:1050800002FC002D00D1D4E002203070002002B0DC
:1050900070BD01A8002101806888010A491E062907
:1050A0001ED8C0467944097949008F44033F451909
:1050B00019535B00207C71690A689EE0E88801282A
:1050C0000ED13078411E022926D20020A060214650
:1050D000083124E06888594D2870C1B202290AD3EA
:1050E00080212046FFF704FF00212046FFF700FF44
:1050F000002002B070BD307803283DD002284CD18A
:10510000002900D18FE00320307061602046FFF756
:105110004AFF0228E4D086E00328E1D1211D0122C4
:105120002046FFF7A1FB002002B070BDB069217CD2
:10513000002941D0C16A40E0C0B20528D0D8C0469D
:1051400078440079400087440246494C4F527069C8
:1051500042684EE0207C0028C2D1B069416B01A8B2
:1051600088474CE0207C0028BAD1B069016B01A8C7
:1051700088470146072024E0002924D060680128E0
:1051800051D0C1B22046FFF72CFB29786160204640
:10519000FFF709FF022846D1A2E780212046FFF74A
:1051A000A7FE00212046FFF7A3FE29782046FFF73F
:1051B00018FB002002B070BD816A01A88847014633
:1051C000022048701CE00020606002203070204601
:1051D000FFF707FB27E0706982680AE07069C26820
:1051E00007E07069026904E07069426901E0706972
:1051F0008269002A00D173E7207C01A9904701460B
:1052000001A80288002A0AD0E888002807D0824234
:1052100000D3024601A802802046FFF725FBE8885C
:10522000002800D0E8E62046FFF72DFB002002B062
:1052300070BD01203070002002B070BD70020020EF
:10524000B0B50A460446087860210140A7208000D6
:10525000201800290AD0402901D0202916D18069C0
:1052600083682046114698470020B0BD11795378D5
:10527000002B15D0012B23D0032B4FD1007803280E
:105280002ED002284AD1480621D147E0802120466D
:10529000FFF72EFE00212046FFF72AFE0020B0BDBA
:1052A000007803282DD0022838D1480636D17F2037
:1052B000084014224243A318080667D5143368E057
:1052C0000078032834D0022828D1480626D020466A
:1052D000FFF70EFE80212046FFF70AFE0020B0BD3A
:1052E0005088002808D17F20084005D0D0880028A9
:1052F00002D12046FFF7FCFD2046FFF7C4FA00204C
:10530000B0BD0F220A40802014235343E218084006
:105310001BD12B23DB00D258002A19D18021204633
:10532000FFF7E6FD00212046FFF7E2FD0020B0BDBB
:1053300050880028B2D1480602D02046FFF700FC72
:105340002046FFF7A0FA0020B0BD9269002AE5D000
:105350007F220A4014235343E518002801D0143556
:1053600002E0552080002D18480606D02046FFF7A1
:10537000FBFC002801D0012000E000202860022270
:1053800020462946FFF770FA0020B0BD5520800066
:105390001B1800201860022220461946FFF764FA05
:1053A0000020B0BDB0B50D46044609786020084025
:1053B00003D0402801D0202822D1A7208000201827
:1053C0000178491E022911D8297902290ED880694D
:1053D0008268204629469047E988002918D100288C
:1053E00016D12046FFF74FFA0020B0BD802120469D
:1053F000FFF77EFD00212046FFF77AFD0020B0BDBB
:1054000080212046FFF774FD00212046FFF770FD44
:105410000020B0BD704700000048704774040020B1
:10542000F0B585B002460D78A8001318145A8348C9
:105430002040CE78032E049612D800240394B400A2
:105440002E4602A52C593546A746C0465D54000895
:1054500067540008735400086D540008012406E0E6
:105460000124039405E0764C641C01E003246402EB
:105470002043744C204318801888C94F3840284373
:1054800020431880087B704E002804D0049802281E
:1054900022D0304621E05020105A0290EC0048788B
:1054A000002879D01019029A8018C98801229143E6
:1054B000920281521888400605D518883840314636
:1054C0004031014319803037188838400499012948
:1054D00000D084E03043ACE05C481C885C4E264041
:1054E00006431E805020145AEE0096190125AF0283
:1054F000F619ED430F892F403753105A30184A8957
:105500002A408280B74A1446F134188820404978EE
:1055100000291CD00028039EA14D049F04D01888A8
:10552000284079490143198018884006464C05D522
:1055300018882840214640310143198030351888A9
:105540002840012F1FD02146203148401CE0002870
:10555000039E934D04D0188828406B49014319805D
:1055600018884006384C05D5188828402146403117
:105570000143198018881040364941401980303560
:105580001888284003E020431880188810402043E2
:105590001880304605B0F0BD049510465030CF88D5
:1055A0000125AF43141901940095AC02019D2D19FA
:1055B000029C2C19A780AD1D00882C5A204F274033
:1055C0002F52096900290DD03E2910D8445B009E56
:1055D0000E40490889198E022643714F12E0203689
:1055E000704026E0415B803E0E436D4F0AE0CC06E2
:1055F0004909002C6A4F00D1491E8902445B0C43C3
:10560000803E26434653198876480446F1342142A9
:1056100004D0198839403C4C0C431C800499002963
:1056200003D0198801400C4802E011880140094864
:105630004840039E1880304605B0F0BD8F89FFFFBB
:10564000FF0300008080FFFF808000008081FFFF5B
:105650000F0E000080B0FFFF80A0FFFFF0B50A78BA
:105660009200875A80184A780B7B2649002B28D055
:105670005C4E3346F1331F40494B002A2AD04B4D34
:10568000002F03D002881A402A4302801C4630347F
:1056900002885206324603D506881E400E43068015
:1056A00006881E402E4306800B46403B0588254059
:1056B0001D430580038813404039194301800020B1
:1056C000F0BD002A15D0364C224630327B060B4600
:1056D000F0D5EBE7002F04D002881A400A4C14439F
:1056E00004801A463032048864060D463446D3D40A
:1056F000D6E73C4A1346F1331F42DBD0284C2B4BF4
:10570000D4E7C046C080000080C0FFFF5821425A45
:105710000123DB0313434352002070474022012141
:1057200081520021815240308180018208467047B9
:105730004021425A024B1340435200207047C0465A
:105740007F400000B0B50A7B002A01D00020B0BD28
:105750000A789200845A80184A78002A0ED062068D
:105760000F4A104B05D5048814401D4620352543AB
:105770000580C9780129E9D030320BE0194A114679
:10578000F131094B0C4205D00188054C0C4007490A
:105790006118018001881140594001800020B0BD8E
:1057A0000F0F0000A080000080B0000080C000004B
:1057B00010B54B78002B04D0094A002B04D1094BBB
:1057C00003E0064A002BFAD0074B09788900445AB7
:1057D0001C4054404452002010BDC0468090FFFF42
:1057E0009080FFFF0F3F00003F0F0000F0B58BB02F
:1057F00007464B78012B5FD10C698869A04225468A
:1058000000D805460123DE03087B002800D187E08D
:105810000A6AC878022800D0D5E008950A960E7862
:105820003D46B700E8190690E85BFA4F0740700064
:10583000A242079000D835E10594F74C2743069C17
:105840002780089FD01B0490086222885020285A85
:10585000F4002E465036039652060995069400D55C
:10586000A2E12A1910189A0202928018478048690A
:10587000019038043D46059C00D12DE30998029A19
:1058800080180A898318A8B2401C460803203040BB
:10589000721E002800D171E20092019A14785778A4
:1058A0003F023C191C80012800D06BE2971C9B1C16
:1058B000009A1646059CF5E2087B002858D0C87867
:1058C000012800D1B3E0022800D0BBE0002B00D0BB
:1058D0002FE25020385A38180126B2020A92801856
:1058E0003B46871C0878C200B85ADF4C2040B852AB
:1058F0000D69099350330896F603002D00D1C3E1DA
:105900003E2D079600D9C3E1D05B06902846089C3F
:1059100020406E083018079E8002069C2043C1E19B
:105920009B02280409970A96089500D12FE11C468E
:10593000F818CA882B46851898B2401C47080322DD
:105940003A404E69781E002A00D105E10790307870
:1059500073781B0218182880012A00D04FE1B61C6A
:10596000AD1C079807462346032800D3F7E00EE155
:105970005020385A38180124A2028018821D087855
:10598000C300D05AB84D0540D5520D698869461BF1
:105990000ED200268E61A8420DD9002D0ED03E2DCC
:1059A00000D9CDE0985A2C406D082C19A40207E0CC
:1059B0008E61A842F1D80546002DF0D1985AAB4C23
:1059C00004439C52D4E1501B08620C78A0003A5A60
:1059D0005020385A079038465706E2006400821873
:1059E000002F00D588E0079FD2199B02D21855805E
:1059F0002A04074600D1FCE20794F8180A898318A4
:105A0000A8B2401C4408032020404969621E0028B7
:105A100000D1D7E10A960D784E78360275191D80AF
:105A2000012800D007E1891C9B1C1446C9E10A69C2
:105A30008869841A09D200248C61904208D9002B0D
:105A40000AD095E101200BB0F0BD8C619042F6D8F0
:105A50000246002B00D08BE15020385A381801261E
:105A6000B3020A93C0183C46871C0878C300F85A52
:105A70007D4D2840F852099450340896F603002AC8
:105A800000D103E13E2A079600D923E1D85B0690B6
:105A90001046089D284056083018079E8002069D33
:105AA000284321E10A9C8034274306980780F000B0
:105AB000281850242C5B0419980223185A801304C8
:105AC0002F4600D193E238180B89C31890B2401CBE
:105AD0004408032020404969621E002800D195E156
