:020000040800F2
:10000000C81500209D010008293800085334000855
:1000100000000000000000000000000000000000E0
:100020000000000000000000000000002D38000863
:1000300000000000000000002B3800082F380008E6
:10004000CD010008CD010008CD010008CD01000858
:10005000CD010008CD010008CD010008CD01000848
:10006000CD010008CD010008CD0100086D09000890
:10007000CD010008CD010008CD010008CD01000828
:10008000CD0100080000000000000000C538000895
:1000900000000000CD010008CD010008CD010008DE
:1000A00000000000CD010008CD010008CD010008CE
:1000B000CD01000800000000CD0100082556000811
:1000C00000F002F800F03EF812A030C808382418FA
:1000D0002D18AC4201D100F035F80FCCA246AB464A
:1000E0000CA730CF2D1B083F3F197C427F1E544484
:1000F0002D090426F441641EAC4201D300F022F81D
:100100000126334200D0FB1A3343984754465D46DC
:10011000DFE70000D45B0000F45B000070470000E4
:100120000023002400250026103A01D378C1FBD813
:10013000520700D330C100D50B6070471FB51FBDFB
:1001400010B510BD00F050FB1146FFF7F7FF05F0AA
:10015000DBFB00F068FB03B4FFF7F2FF03BC00F029
:100160006FFB000070B505460C46164602E00FCC4A
:100170000FC5103E102EFAD2082E02D303CC03C5B1
:10018000083E042E07D301CC01C5361F03E02178B9
:100190002970641C6D1C761EF9D270BD0F4880F367
:1001A00008880F480168090E0E4A914205D10E4891
:1001B0000E4901600E480F4901600F4880470F4803
:1001C0000047FEE7FEE7FEE7FEE7FEE7FEE700008A
:1001D0000B480C490C4A0D4B70470000C815002015
:1001E000040000001F000000181002400100000081
:1001F0000000014000000000C1380008C1000008F4
:10020000C80D0020C8150020C8110020C81100200A
:10021000F8B5042A2CD3830712D00B78491C03703D
:10022000401C521E83070BD00B78491C0370401CE6
:10023000521E830704D00B78491C0370401C521EC9
:100240008B079B0F05D0C91ADF002023DE1B08C9CE
:100250000AE0FFF787FFF8BD1D4608C9FD401C46B0
:10026000B4402C4310C0121F042AF5D2F308C91A57
:10027000521EF0D40B78491C0370401C521EEAD465
:100280000B78491C0370401C012AE4D409780170E2
:10029000F8BD0000002203098B4273D3030A8B428E
:1002A00058D3030B8B423CD3030C8B4221D312E077
:1002B00003460B437FD4002243088B4274D30309C7
:1002C0008B425FD3030A8B4244D3030B8B4228D368
:1002D000030C8B420DD30902FF2212BA030C8B428E
:1002E00002D31212090265D0030B8B4219D300E02E
:1002F000090AC30B8B4201D3CB03C01A5241830BB3
:100300008B4201D38B03C01A5241430B8B4201D362
:100310004B03C01A5241030B8B4201D30B03C01A8B
:100320005241C30A8B4201D3CB02C01A5241830A05
:100330008B4201D38B02C01A5241430A8B4201D334
:100340004B02C01A5241030A8B4201D30B02C01A5E
:100350005241CDD2C3098B4201D3CB01C01A5241C5
:1003600083098B4201D38B01C01A524143098B424E
:1003700001D34B01C01A524103098B4201D30B0137
:10038000C01A5241C3088B4201D3CB00C01A52415C
:1003900083088B4201D38B00C01A524143088B4221
:1003A00001D34B00C01A5241411A00D201465241BA
:1003B000104670475DE0CA0F00D04942031000D3D9
:1003C000404253409C46002203098B422DD3030A2E
:1003D0008B4212D38901FC2212BA030A8B420CD33E
:1003E000890192118B4208D3890192118B4204D367
:1003F00089013AD0921100E08909C3098B4201D3E7
:10040000CB01C01A524183098B4201D38B01C01A20
:10041000524143098B4201D34B01C01A5241030997
:100420008B4201D30B01C01A5241C3088B4201D346
:10043000CB00C01A524183088B4201D38B00C01AF3
:100440005241D9D243088B4201D34B00C01A5241CA
:10045000411A00D201465241104663465B1001D357
:100460004042002B00D54942704763465B1000D3E1
:10047000404201B50449002802DC491C084000E064
:100480000846C046C04602BDFFFFFF7F7047704769
:100490007047000030B50346CA02400D1043164DA8
:1004A000164C0A1502D02043002A06DBAA1A002A9D
:1004B00012DDD040FF2A0BDC30BD5205520D01D1B8
:1004C00040004008AA1A07D4D0404042FF2A01DD6C
:1004D000002030BD0028FCDD4A00002B01D00120A7
:1004E00000E00020101801225205D042F0D8C817B1
:1004F000C043604030BD00001E04000000000080CA
:100500000346CA02400D10B510430A1504D0012459
:10051000E4072043002A05DB0A4CA21A04D4D04089
:10052000FF2A00DD002010BD4A00002B01D0012071
:1005300000E00020101801225205D042F2D8C8175E
:10054000C04310BD1E0400001F22030C02D10F2265
:10055000000402D0030E03D004E0002001467047DF
:100560000002083A030F01D10001121F830F01D1CD
:100570008000921E002801DB4000521E1205511817
:100580004205C012411810467047C10FC90700D07C
:100590004042012292071143D6E701218907D3E7A0
:1005A000F0B58B4C0F09254689B0BD437BD01D09A2
:1005B0002646AE43FAD00E465E402740F60F3E4335
:1005C000254071D024012142FBD0FF24AD19A404A1
:1005D0002D1B039501252D05DB02DB0AC9022B43E8
:1005E000C90A29431E010901040F130F0501214304
:1005F0001701880B820391432D098C46A90B1E43DA
:100600008A039543B30B9A0396433F09BA0B9403AD
:10061000A74302962E467E430497B6464E19D71935
:100620000C460196544305977E43371B7646BF1B05
:100630003601B646BE0B361900967646BC0437190D
:10064000009C01D3641C00946400002F01D001269B
:100650003443029E049F754366467E4304967600AB
:1006600034196E0034190094029C019E1C196643D3
:10067000751BAE46069465464519059C05956C4369
:10068000594375460891691A0191049E01465143E8
:10069000A41B0491611A009C0791E10605D0610931
:1006A0000122114302E072E06EE06109089D00271B
:1006B0002C0A2D066918049D7C412A0A2D0669180A
:1006C000019D6241AC0DAD026D185441079A910D28
:1006D000920255196141029A644658435443069B5D
:1006E000059A5A43121A131B9A0E9B015B187A4102
:1006F000010B0005C3185141220A200644195A4132
:100700009A4200D2491C01204002814203D31523A2
:100710000226F64302E014230326F6432020C51ADE
:10072000A9401746AF40DA400A4320460399D84013
:100730000914731819055118039A3843D207514008
:10074000AC4009D00122944006D30022401C514104
:10075000002C01D1400840001E4A934212D30122CE
:1007600003989206904207DB0520400709181A48B3
:100770000143C012414004E0032040070818C10FA4
:10078000C907002009B0F0BD0020F107FAE70518FD
:100790000C464C4111486D42A04115D394181A469D
:1007A0005A410E48644290410ED301204A00400550
:1007B000824209D35A00824206D35940C90F084ADF
:1007C000C90700201143DDE700200649DAE70000F1
:1007D0000000FF07FE070000FFFFFF7F0000E0FFB3
:1007E0000000F07F0000F87F754600F025F8AE4667
:1007F000050069465346C008C000854618B020B5BC
:10080000FFF7E6FC60BCB64600260027C0C5C0C5A1
:10081000C0C5C0C5C0C5C0C5C0C5C0C5403D4908EC
:1008200049008D46704710B50446C046C046204674
:10083000FFF791FC10BD00000048704780010020C8
:1008400001491820ABBEFEE726000200704770B5D4
:100850008C180578401C6B075B0F01D10378401C96
:100860002A1106D10278401C03E00678401C0E7065
:10087000491C5B1EF9D12B0705D40023521E0DD451
:100880000B70491CFAE70378401CCB1A921C03E05A
:100890001D780D70491C5B1C521EF9D5A142D8D39E
:1008A000002070BD21280AD10820887100204871DD
:1008B0000871C87001228A70C2224A700870002034
:1008C0007047002070470000B0B5274C074900254D
:1008D00020462A4603F07AF90549204603F06EF9CE
:1008E000204603F04CF92846B0BDC0465D06002006
:1008F0001D060020B0B504460A68501E07280AD815
:100900000D460A482146FFF783FC2868084908601D
:10091000084801210170144D2846214603F04EF984
:10092000284603F02CF90020B0BDC046AC0D0020D5
:10093000A80D00201C06002010B50A4601465720CD
:10094000C000094B185821231B01C0184368002B15
:1009500001D0012010BD0260034C204603F036F99F
:10096000204603F09FF910BDA006002080B5034883
:1009700000F00CF8024800F009F880BDA80900203A
:1009800064090020EFF3108072B6FEE7F0B585B081
:10099000C16B026C04273C460292944003910E689E
:1009A000214631404B424B4104900568286801467E
:1009B00039404A424A411A4330D02B46012202278D
:1009C000014639404C424C41029DAF4037420192B2
:1009D0001146324600D02146049E34462034002978
:1009E0002CD008210840474247412846EA401107D9
:1009F000019D00D53D46002D1ED119680E22914360
:100A0000196001210A468240039B5A60B1630022AB
:100A100022706170316B00290CD10DE029688906C4
:100A200002D42968B943296003994C60049EF16A95
:100A3000002901D03046884705B0F0BD1968890605
:100A400005D419680A2291431960012161700021BF
:100A5000217003994F60B16A0029EBD1ECE70000E7
:100A6000F0B585B0002830D00546203502216970E8
:100A7000C4C804684168019181680291C16803910A
:100A8000016904911168134B0B4033433B432343EB
:100A900001990B4302990B4303990B4304990B43B0
:100AA00013600024C4620C4901632C700B490C389C
:100AB000521814210646104604F0EAFF8000306404
:100AC00001206870204605B0F0BD0124204605B025
:100AD000F0BDC0460FC0FFFF00000240F8FFFDBFA1
:100AE000F0B582B004462020255C0220012D2AD0DA
:100AF000019226462036012232707778012F20D1CC
:100B0000022070700020A063266837689743376022
:100B1000E56B0095276C1546BD40009F7D607360B6
:100B20006368102B019F00D00F46B760102B00D0D8
:100B30000199F1603168E36A002B06D00E23194356
:100B400009E00021317002B0F0BD0A231943316081
:100B5000316804239943316031681143316002B038
:100B6000F0BD0000B0B5044600F066F90546601C13
:100B700002D0CF480078041900F05EF9401BA04273
:100B8000FAD3B0BDF0B589B000296CD003469E48B9
:100B9000834201D0052000E002200090184620305A
:100BA00001900022144617460391029323E0079E0A
:100BB0009640029B1868B04318601C2020400792A2
:100BC000069A8240F8088000019D29589143079AAF
:100BD0002950D868B043D86058680899884358604D
:100BE0009868B043986003997F1C0846F840921CAF
:100BF000241D002837D001252846B84006460E405F
:100C0000F2D0089003203946079081438048085865
:100C100005900920C0068342049105D07D48834297
:100C2000009802D1284600E000200C2323400F2525
:100C300006959D400599294098408142B7D1744856
:100C400004990918714B1868B04318605868B0438C
:100C50005860D868B043D8609868B0439860086816
:100C6000A8430860A3E709B0F0BDC046F0B58CB05A
:100C700002900C68002C00D1C3E06348029A8242C3
:100C800001D0052000E002200090203201920023D4
:100C90001D460A9309910CE032433A605B1C0C68D4
:100CA0002046D8400A9A121D0A92AD1C002800D195
:100CB000A7E0012706979F403C400794EED003939E
:100CC00003200246AA40D2432B464D682E460640DA
:100CD000741E012C0595049313D80892029A90680B
:100CE000089C2040CC689C4004439460E806C00FF8
:100CF000039B98405468BC431746089A04437C60A1
:100D000007E0032E029F039B03D106460599049D2D
:100D10001FE0F868104009998C68049DAC400443BA
:100D2000FC60022E059914D11C200A9908400F215D
:100D30008140DC08A400019E36598E430892099A2E
:100D4000116981403143019801515168089A032685
:100D50000E40AE4038681040304338608803800F42
:100D600009999BD061490868069C2043086008687F
:100D700020400B9003201E4686430B982448315890
:100D80000920C006029A824205D022488242009F72
:100D900002D1274600E000270C200A9A10400F24B9
:100DA0008440A1431A4AB41887400F432760174F65
:100DB000BA6809994868C40210D5079E3243BA60E0
:100DC000FA68840210D4B243FA607A68840310D4BB
:100DD000B2437A603A68C00311D55DE7079EB2431B
:100DE000BA60FA688402EED53243FA607A68840306
:100DF000EED532437A603A68C00300D54CE7B2437F
:100E00004BE70CB0F0BDC0460008004800040140AC
:100E1000080001400004004842690B4693430A4021
:100E20001104C91881617047002A02D0182281502C
:100E30007047282281507047054800687047C046B7
:100E40001B48007802490A68101808607047C046BD
:100E5000C00D002080B50648016810220A430260D8
:100E6000032000F007F800F027F8002080BDC046FE
:100E70000020024070B504467D20C0000C4E317841
:100E800004F006FE01460B48006804F001FE01F084
:100E900055FB0125032C08D8002806D10025E8437E
:100EA00021462A4600F032F87460284670BDC046DC
:100EB000000000202800002082B00C4801680122B8
:100EC00011430160016811400191019911074268C5
:100ED0000A43426040680840009000980448016856
:100EE00010220A43026002B07047C0461810024048
:100EF00000000140002805D41F2108400121814045
:100F0000014801607047C04600E100E0002805D4B8
:100F10000322034693430A4A9A1803E00C22024034
:100F2000064BD2188007C00E8901C9B28140FF2349
:100F300083401068984308431060704714ED00E048
:100F400000E400E0F0B502685423D15A01242143A3
:100F5000D1525921CD0000214155D65A022737439D
:100F6000D752401984600846F0BD7047B0B52824B8
:100F70000D060ED5072529404C4300191030002AD4
:100F80000ED003811B0C01210A2283520173002021
:100F9000B0BD4C430019152109014018002AF0D1B9
:100FA00000210622835201730020B0BD80B55B2270
:100FB000D200835828224A438018426A184603F018
:100FC0005BF880BD80B55B22D200835828224A435B
:100FD0008018592292008258184603F0B8F880BD54
:100FE00010B50A4607230B4028215943411854B233
:100FF000002C03D415242401091900E010310B70D2
:10100000D2094A7029221201835C012B01D10220EE
:1010100010BD841801222270006803F0A3FD002097
:10102000207010BDB0B50F220A4003799A4201D951
:101030000120B0BD07230B4028225A4382184CB22E
:10104000002C03D415242401121900E010320024CE
:101050009470C9095170137029210901435C012B57
:1010600001D10220B0BD4518012129700068114648
:1010700003F0ECFD2C702046B0BD07220A40282169
:10108000514340185B2189004058704770B50C46A9
:1010900007250D4028216943411866B2002E03D46C
:1010A00015263601891900E010310A610D70E20938
:1010B0004A70CB70022B01D100220A712922120141
:1010C000835C012B01D1022070BD841801222270A3
:1010D000006803F035FC0020207070BDB0B5072417
:1010E0000C4028216143411815252D014C55491903
:1010F00000240D4614351CC54C70006803F0FAFD41
:101100002046B0BDB0B507230B400279934201D908
:101110000120B0BD28224CB2002C05D44A438218CD
:1011200015242401121902E05A43821810320124B6
:101130009470C9095170137029210901435C012B76
:1011400001D10220B0BD45182C700068114603F093
:10115000B3FD00202870B0BD70B507250D402821D3
:1011600069434118342401260E5500244A628B62DB
:10117000CC620B634E740D741031006803F0BAFD3D
:10118000204670BDF0B58DB00746006804F052FAF5
:1011900001041DD4FC49891F084221D029200001E7
:1011A0003C1838684421425AF84B134043523846A1
:1011B00000F08AFD2078012810D000253D73012021
:1011C00020703868294604F0EDFA25700DB0F0BDA6
:1011D000386844210C91415E002920D40DB0F0BD47
:1011E000410400D598E3810400D59EE35921C9004C
:1011F0007A18C10400D5A0E3010500D5BAE30106C1
:1012000000D5D1E3810500D5DEE3C005E6D5386819
:101210004421425ADE4B134043520DB0F0BD15211C
:10122000090179180A91014644315322D200BA18B3
:1012300004923A46103208920123DA030B921A0202
:101240000792DA02039203221203019200939A0397
:101250000692099720E05021415ACB4A8218511832
:101260000A9C2278D2008B5ACA490B40E361E2887B
:10127000049904F0E2F938680188C74A11408022D5
:101280000A430280384600F05CFD38680C99425EE3
:1012900001464431002AA1D50A880F24144007D002
:1012A000A100425E95B2002A2FD42806EDD53BE17D
:1012B0000021415ED20660D4B74A11400B9A114317
:1012C0000180B14909185022805A0818397CC90098
:1012D0004018001F0088AF490840F862796A081872
:1012E0007862002638463146FFF760FE387B0028DA
:1012F000CBD0B86A0028C8D1387B80210143C8B25E
:1013000039684C2288523E73BFE741180A88A24BC5
:101310001A40802313430B80282161430A9A5618F0
:10132000317B002972D0F17802297CD15021415AB9
:101330000A183178CB009B18B269069F3D4200D055
:101340008CE0914FDF5B934B1F40D31B00D3A7E092
:101350000023B361BA4200D9A6E08A000592835AFD
:101360008E4A13408E4A5340059A83526A0600D42F
:101370009DE0002F00D0B4E0B9E00A0500D56AE78F
:10138000002982D50188844A114080220A430280C4
:101390007D4941185024025B89180A9D2A78D200A1
:1013A0008B5A7C490B40EB6110D02A4669690029B1
:1013B0000CD01546D28804F040F9E869696908182C
:1013C000686100213846FFF7FDFD38680188039AFF
:1013D000114200D059E7019A1140914200D154E7DF
:1013E000015B694A8218535A6A4C234053520A9B44
:1013F0001B69002B00D1D1E13E2B00D9FAE1545AF0
:101400005D08009E3340EB189B02FCE15021415ADD
:101410005D4A821851183278D2008F5A5D490F40C8
:1014200065D0F2885EE031788A00835A5A4F3B409B
:101430000B9FFB18C0338352835AC9000A185021EE
:10144000415A564FF1373B4245D04F4B9A185118ED
:10145000091F0F884F490F403BD148E04A4FFB1806
:101460001B1F1F884B4B1F40D31B2BD20023B36184
:10147000BA422AD88A000592835A484A1340484AF9
:101480005340059A83526A0621D58900425A424B3D
:101490001A400B9B9A18C0324252002F19D126E0F5
:1014A000B361BA4200D858E76A0600D561E78900FF
:1014B000425A394B1A400B9B9A18C0324252002FA5
:1014C0000FD114E0B361BA42D4D96A06DDD4002F3B
:1014D0000DD0328906E02C4BD218575A2D490F40B7
:1014E00005D0728971693B4604F0A7F800E0002737
:1014F000F069C019F0617069C0197061B0690028A5
:1015000002D03069B84207D93178099F3846FFF7D1
:1015100059FD280608D4B8E6099F3868314603F01B
:10152000E9FB280600D4B0E6600041003868425A62
:10153000194B1A400B9B1A43425228216143089AC7
:101540005618F17801292DD10021B161327B002A92
:1015500000D11EE16A0600D588E07278012A00D128
:1015600004E1002A00D014E15021415A064A8018B3
:1015700040183178C900425A064B1A404252425A2A
:101580000B9B1A43425204E106040000FFFB0000DB
:10159000FFFE0000FF0300000F0F00000F3F0000E0
:1015A00080A0000007990D421DD15021415AFC4AEC
:1015B000121852183178CB00D218121F1288F94B2A
:1015C0001A40B3699C1A00D20024B461934200D837
:1015D000E0E0716989187161F1698918F16131463A
:1015E00003F088FB51E65021445A3178CA0017189D
:1015F000B3690246503205926A0650D4F14ABA18CD
:101600000292175BE74A1740DA1B00D20022B26150
:10161000BB4274D9069A154206D18900425AFB4B47
:101620001A40FC4B1A4342522421715C012900D01C
:1016300065E17169C9197161F269D219F2613369A1
:10164000346A9C4200D3E7E0334624330022002C66
:1016500000D126E11A70326223467278012A029F75
:1016600000D0E0E0059A1288BB5236E17278012A78
:1016700000D184E0002A00D08BE05021415AE64A94
:10168000101840183178C9004018001F0188DE4A40
:101690001140018001880B9A1143018079E0DE4AF4
:1016A000D7193A1F0292145BD74A14401A1B00D272
:1016B0000022B261A34240D9069A154206D08900A1
:1016C000425AD24B1A40D34B1A4342522421715CE6
:1016D000012900D013E1716909197161F2691219C8
:1016E000F2613769336ABB4200D3B5E03246243237
:1016F00000251570002B029F00D0B0E0B1E070789B
:1017000001284DD00028099F54D1059802880298DD
:101710008218131F1A88BC4C22401A801A880B9C0E
:1017200022431A80059A1388C25AB74C2240C252EB
:10173000C25A0B9C2243C2523CE07078012840D030
:10174000002845D1059804880298025BAE4B1A40E8
:101750000253025B0B9B1A430253059800883A5AC6
:10176000A94C22403A523A5A1A4330E05022825A47
:10177000A94BC01880183278D200815209E050225B
:10178000825AA54B181880183278D2008018001F92
:10179000018031783846FFF709FC76E58B5A31E055
:1017A000059B1888029C2018001F002202801888C0
:1017B0002252099F3846FFF7F9FB069805420ED0E2
:1017C0009DE0059B18880022029C225218883A52FC
:1017D0000998FFF7EBFB0698054200D18FE00998C6
:1017E000006831788900425A884B1A40894B1A4365
:1017F000425284E0DC065B09002C00D15B1E9C0297
:10180000535A23430B9C234353520188804A11406F
:10181000824A5140018038E5E21A32627278012A28
:10182000029F00D11EE7002A57D1059A1288BC5AA0
:10183000754D2C40BC52002B3AD03E2B42D8BC5A9E
:1018400005941D463C46009F3D405F087D19AD0252
:10185000059F3D43A55240E0DD1B3B46029F35629C
:101860001C467278012A18D0002A44D1059A1288A1
:10187000BB5A654D2B40BB52002C1ED03E2C2FD89E
:10188000BB5A059325463B46009F3D4067087D199E
:10189000AD02059F3D439D522DE0059A1288BC5232
:1018A00029E01A703B467278012A029FBBD1D9E623
:1018B000BC5A0B9D2C43BC520FE0BB5A0B9D2B43D3
:1018C000BB5218E0DD065C09002D00D1641EA402A5
:1018D000BD5A25430B9C2543BD5272899BB20CE037
:1018E000E5066309002D00D15B1E9B02BD5A1D4316
:1018F0000B9B1D43BD523289A3B203F0B9FF099F70
:10190000386831788900425A404B303313400B9A83
:10191000B0325A404252B8E438684421425A404BEF
:10192000813B134043520DB0F0BD38684421425A08
:101930003C4B134043520DB0F0BD38684021435A30
:101940000424A3434352435A0824A3434352107828
:10195000012804D1002111703846FFF706FB3846F4
:1019600000F0C4F938684421425A2F4B13404352C7
:101970000DB0F0BD38684021425A0823134343524A
:10198000024640329388294C1C409480425A0423DA
:1019900013434352384600F0F5F90DB0F0BDC04690
:1019A00006040000FF03000038684030818880236F
:1019B000994381801178002911D0384600F0E2F96E
:1019C0000DB0F0BD0604000038684421425A184B9F
:1019D00013404352384600F09BF90DB0F0BD01882A
:1019E00004230B430380018808230B430380012158
:1019F0001170808A80083C23034053603846FFF70B
:101A0000B4FA0DB0F0BDC046FF0300000F0F000098
:101A10000F3F000080C000000604000080B00000FE
:101A200080C0FFFFFFDF0000FFEF0000FFF70000B6
:101A3000FFFD0000F0B585B000281FD00446292026
:101A4000000125186878002804D10020287020465D
:101A500000F018F903266E70206803F0EDF8207985
:101A6000002800D1FCE00495014631400391042890
:101A700007D20022039E002E38D161E0012005B07C
:101A8000F0BDFC22024002942346F51E691C382753
:101A9000D955A91C6027D95500271F625F629F6234
:101AA000DF74012159749F64DF641F651F675F67DE
:101AB0009F671C46383461701D741D46603569701F
:101AC000E7701C4688346170EF7088215E5427618E
:101AD0006761A761E770311DA033741C94420E4604
:101AE000D3D1CA1E029C039E002E29D02346103358
:101AF0002821019151435A54591800270F614F6111
:101B00008F61CF70012502954D70012E18D0511CA8
:101B10003546019E4E43995599190F614F618F616A
:101B2000CF70029E4E70022D0AD0911C019A4A433A
:101B3000995499180F614F618F61CF70029A4A7062
:101B40000028049D00D18BE00322014611400428A7
:101B500003D2002000295AD182E00F235B010294B6
:101B6000E318FC2528401C46673C002626701C46CE
:101B7000783C26601C467C3C26601C46803C2660E7
:101B80001C468D3C26701C46903CD71E27701C4678
:101B90008F3C26701C463F3C26701C46503C2660FD
:101BA0001C46543C26601C46583C26601C46653C3E
:101BB00026701C46173C26701C46283C26601C4696
:101BC0002C3C26601C46303C26601C463D3C267062
:101BD0001C46683C7D1C25701C46403CBD1C257085
:101BE0001E601C1F26601C46083C26601C46153CD7
:101BF00026701C46183C2270151DA033521C8242D0
:101C00002A46B0D1E81E029C049D002928D0152246
:101C10001201A218282633464343D0542746D4182D
:101C2000002323616361A361E37063703C46012973
:101C300016D0441C3546654354555419049D236100
:101C40006361A361E37063703C46022908D0801C85
:101C5000464390559019036143618361C37043709B
:101C600007CC0C3C02F0DEFF0020207301216970DC
:101C7000A17A012904D105462046FFF763F92846D9
:101C800005B0F0BD10B582B000680D49884201D0A2
:101C900002B010BD0120C0050A490A6802430A606B
:101CA00009680140019101981F24002120460A463D
:101CB000FFF72CF92046FFF71DF902B010BDC04612
:101CC000005C00401C100240B0B504464079022878
:101CD00001D0FEF757FE5B20C5006059012102F0DC
:101CE0004CFB605902F004FBB0BD000010B5044687
:101CF000407A002806D02B480168062291430160F3
:101D000001F099FD5B20C000205802F01EFB10BDC1
:101D100080B55B21C900405802F021FB80BD10B5A1
:101D200029221201835C012B01D1022010BD8418ED
:101D3000017301222270006803F034FD002020703E
:101D400010BD80B55B21C90042585321C90041181C
:101D5000104602F025FB80BDB0B529210901425C87
:101D6000012A01D10220B0BD44180121217001686F
:101D70000546084603F04AFC286802F04BFF0020A5
:101D80002070B0BD10B504465B20C000205802F0A2
:101D900061FB607A002804D00248016806220A43E9
:101DA000026010BD10ED00E0F0B587B00446807809
:101DB000C007474F4FD00120059001073A1F106818
:101DC0000840049006D1106808431060106808406D
:101DD00006900698029203913E4F3868C00512D4CF
:101DE00005980602386830433860FFF725F8054645
:101DF0003868304207D1FFF71FF8401B6428F7D935
:101E0000032007B0F0BD032001900002304F396875
:101E1000014012D06268024091420ED00598000441
:101E200039683A6802433A603A6882433A60084641
:101E3000294A10403860C8073AD138682649084016
:101E40006168014339600498002804D1029A10683F
:101E50000399884310602168C80708D188060ED40A
:101E6000880314D4002049051AD407B0F0BD38699E
:101E700003229043A26802433A618806F0D538698C
:101E800010229043E26802433A618803EAD5386938
:101E900080229043626902433A6100204905E4D5FB
:101EA00039694022914322690A433A6107B0F0BD83
:101EB000FEF7C2FF0546614E38688007BDD4FEF7C5
:101EC000BBFF401BB042F7D9019807B0F0BDC04638
:101ED0002010024000700040FFFCFFFFF0B581B011
:101EE000002842D00D460446524B18680121084094
:101EF000A84208D21A68012082432A431A601A684D
:101F00000240AA4251D1206882074B4E0CD54207AD
:101F100004D5072212023368134333603268F0237A
:101F20009A43A36813433360C00721D1414A116823
:101F300001200140A94205D911688143116011684F
:101F4000C90732D1217849073B4F06D5072109023D
:101F50003A688A43E168114339603B681907890F81
:101F6000374A022912D2144655E0012001B0F0BDD3
:101F70006268032A14D0022A2F4B0BD0181F012AA3
:101F800015D10068800308460FD514E003292CD131
:101F90002C4C40E0181F00688001084605D50AE077
:101FA000254B186B8003084605D401B0F0BD0068CE
:101FB00080070846F9D5186803210091884310432B
:101FC0001860FEF739FF06461C4F1B4800680C21BD
:101FD0000140606880008142A8D0FEF72DFF801B81
:101FE000B842F2D9009801B0F0BD0321CD039902A7
:101FF0002B40090F144C645CB96A0F260E4013493C
:10200000895DAB4203D000048342104600E00D48D6
:1020100003F03EFD444338680006000F0C49085C9D
:10202000C4400C4804600320FEF724FF002001B0E8
:10203000F0BDC0460020024004100240881300009A
:1020400000127A00006CDC02965C0008A65C0008B6
:10205000865C00082800002070B586B015460C4646
:10206000032004900220029000200390059001209C
:102070000102019140040B4E316801433160316827
:102080000140009100980920C00601A9FEF7EEFD6D
:102090002C437F200006103E31688143214331608C
:1020A00006B070BD14100240F0B587B004460120A0
:1020B000002C00D13CE204902078C007F64E059435
:1020C0000CD071680C200140042900D08FE03068EA
:1020D000800303D56068002800D131E120788007B3
:1020E00021D570680007800F0ED070680C21014068
:1020F000082900D098E00320C00371680140012046
:10210000C003814200D08FE030688007059C03D572
:10211000E068012800D013E13068F8218843216984
:10212000C90001433160059C2078000724D4207841
:10213000400736D42078C00600D4CEE0706B0599F5
:1021400049694A1D00D1BDE0012900D03EE10421CA
:1021500008437063706B012101437163FEF76CFEED
:102160000546706B800700D5AFE0FEF765FE411BAA
:1021700003200229F5D9DBE1706AE16900297ED0EC
:10218000012108437062FEF757FE0546706A80071A
:10219000CDD4FEF751FE401B0228F7D9032007B02B
:1021A000F0BD012003900107F0690840029006D1BC
:1021B000F0690843F061F0690840069006980191C3
:1021C000DC4F3868C00546D40398040238682043C1
:1021D0003860FEF731FE0546386820423BD1FEF7F5
:1021E0002BFE401B6428F7D9032007B0F0BD7168AF
:1021F0000140082908D10320C00371680140012073
:102200000004814200D162E76268306801214F0416
:10221000002A00D129E1052A00D11FE1012A00D0BE
:102220003CE1090408433FE13068059CE16800296E
:1022300037D0012108433060FEF7FEFD05463068C7
:10224000800700D568E7FEF7F7FD401B0228F6D9A6
:10225000032007B0F0BD05988168306AB64F0029A9
:1022600000D1DDE0052900D1C5E0012900D1C6E09B
:10227000039988433062306A04218843C1E0012118
:1022800088437062FEF7D8FD0546706A800700D467
:102290004DE7FEF7D1FD401B0228F6D9032007B019
:1022A000F0BD012188433060FEF7C6FD0546306869
:1022B000800700D437E7FEF7BFFD411B032002294A
:1022C000F5D935E1042188437063706BF8218843A8
:1022D00005998969C90001437163059800788006F2
:1022E0000BD571680C2001400C294DD1706B800317
:1022F00003D50598006A012822D10598446A002C6C
:102300001BD070680C21014008291CD1012C17D06A
:102310000320C20370680240F16A059CA36A9A42D6
:102320000ED10F221140236B994209D1910408402C
:10233000E16A8842049800D0FAE0002007B0F0BDBE
:10234000049807B0F0BD0120020631680492914361
:1023500031604706FEF770FD0546022C0AD1306851
:10236000384200D1C3E0FEF767FD411B032002297C
:10237000F5D9DDE030683842DFD0FEF75DFD411B66
:1023800003200229F6D9D3E071680140082905D15C
:102390000320C003716801408142A7D0706B05998A
:1023A000096A002900D18FE001210A0410437063FB
:1023B0004C04FEF741FD0546706B20429DD1FEF7AF
:1023C0003BFD411B03200229F6D9B1E0042108435B
:1023D0007063706B012188437063FEF72DFD054625
:1023E000706B800700D478E7FEF726FD411B0320C1
:1023F0000229F5D99CE0042108433062306A039930
:1024000008433062FEF718FD0546306A80071BD48A
:10241000FEF712FD401BB842F7D9032007B0F0BD0C
:10242000039988433062306A042188433062FEF7A2
:1024300003FD0546306A800706D5FEF7FDFC411B0B
:102440000320B942F6D973E002980028059C00D019
:1024500070E6F06901998843F0616BE68A041043E5
:1024600030600904306808431EE00A04904330607D
:102470008804316881433160FEF7DEFC0546059C27
:102480003068384200D129E6FEF7D6FC411B032014
:102490006429F5D94CE0C046001002400A0490437C
:1024A00030608904306888433060FEF7C5FC05461B
:1024B0003068384200D011E6FEF7BEFC401B6428AD
:1024C000F6D9032007B0F0BD01210A0490437063E0
:1024D0004C04FEF7B1FC0546706B204200D10CE7BE
:1024E000FEF7AAFC411B03200229F5D920E0F06A7F
:1024F0000F218843059A116B0143F1627B20C003D1
:1025000071688143D06A0843916A01437160306801
:10251000049908433060FEF78FFC04463068384267
:1025200000D00AE7FEF788FC011B03200229F5D939
:1025300007B0F0BD0070004088130000401E010E7F
:1025400001D0012070470749074A506007480368D7
:102550000B40032189075918016000209060072172
:1025600011607047FFFFFF0010E000E020ED00E089
:1025700070477047B0B53C22825C012A01D102202D
:10258000B0BD02463C320223537000684368702499
:10259000A3430D681D438468456001239D07A8423D
:1025A00005D09A4DA84202D0994DA84204D1802569
:1025B000AC43496821438160002010705370B0BD66
:1025C00070B5002828D005463C356978002905D12A
:1025D00000212970044600F063F82046022169704A
:1025E0000268166801218C07A24205D0874B9A42E7
:1025F00002D0874B9A4211D170239E4383683343A4
:10260000244EB2420EDCA24215D0814CA24212D01E
:10261000DF4CA2420FD03AE0012070BD33461D4E80
:10262000B242F0DD794CA24205D01B4CA24202D04E
:102630001A4CA2422BD103242402A34304691C4355
:1026400080239C43836923431360C368D362436838
:1026500093626E4B9A4205D00F4B9A4202D00F4BB9
:102660009A4201D14069106351611069C00702D0DC
:10267000106988431061A972A970E97029716971A4
:10268000A971E971297269726970002070BD1C46D8
:10269000D6E7C046FF2B01400048014000440140FE
:1026A000F0B587B00546002406940594049403947D
:1026B00002940168B648814252D05548814228D0E0
:1026C00001208207914274D13B490A6802430A60A3
:1026D0003C4E202100918023C7024102384A143227
:1026E00014C634607360B160F76000993161746141
:1026F00031490968014001910198083E3046FEF7D2
:10270000AFF9002801D0FEF73DF96E62756207B09F
:10271000F0BD2948026802210A430260274E2020AA
:1027200000908023012082020002254F37607460F0
:10273000B460F360306172610098B061F4611E486A
:1027400000680840019001983046FEF789F900289A
:1027500001D0FEF717F96E62AE63756207B0F0BD87
:1027600001252902144802680A43026002680A40EF
:10277000019201996904083802680A4302600068FE
:1027800008400190042006900594049402200390D0
:102790001020029001980920C00602A9FEF766FAEF
:1027A0001326304629462246FEF7B0FB3046FEF798
:1027B000A1FB07B0F0BDC0461C100240A8090020D4
:1027C00044000240640900203D21415C01291BD1E5
:1027D00001463D3102220A700068C26801210A43A5
:1027E000C2608A07904205D0C94A904202D0C94AC5
:1027F000904204D1826807231340062B02D002685E
:102800000A4302600020704701207047002C0140FD
:1028100000040040F0B53C22825C012A01D1022074
:10282000F0BD02463C3202235370504E3346773B94
:102830000468A0681840A0600D6800234F2D1FDCBD
:102840001F2D36DD202D38D0302D36D0402D00D034
:1028500087E0206A256A0126B5432562A569F0262E
:10286000B543CE6836012E43A6610A25A8434968C0
:1028700001432162A06847210143302081436AE07F
:102880006F2D26DD01204703BD4257D0000385424E
:1028900018461AD0702D64D1A06830404D688E68FB
:1028A000C9682E43090231430143A160A068772122
:1028B00050E0002D01D0102D53D1A0687021884325
:1028C000054307202843A06018461370012151706A
:1028D000F0BD502D1BD0602D43D1256A1020C04380
:1028E000266A064026620F263603A769B743CE68DC
:1028F00036033E43A661A026B54349680901294332
:102900002162A16867250D430540A56024E0206A87
:10291000256A0126B5432562A569F026B543CE6830
:1029200036012E43A6610A25A84349680143216266
:10293000A06857210143202081430CE0A568354061
:102940004E688F68C9683743090239432943A1603B
:102950008003A1680143A1601846137001215170E2
:10296000F0BD0120137001215170F0BDFF00FFFF89
:10297000704700000168A04A914200D07047007F74
:102980000128FBD103488188491C81807047C046DB
:1029900000200040F2010020F0B582B03C23C35C6F
:1029A000012B02D1022002B0F0BD03463C330224C9
:1029B000E241032A00D9A4E07A44127952009744F4
:1029C00001752E4F0268146A156A0120854315624D
:1029D000CD68019560C90096976986070839B242AB
:1029E00005D0BA4EB24202D0B94EB24202D1032053
:1029F00087430098074310461830F026B743019EDE
:102A00003601F6B2BE1996610A263540B443641900
:102A1000146294690C25AC439461896869E000688C
:102A2000026A01242402056AA54305624C68F02568
:102A3000AC43CD682D01EDB22C19C569F326B54321
:102A40002543C561052464020D682D022540A2437B
:102A500052190262C2690C24A243C261896823E050
:102A60000068026A01242403056AA54305624C68D4
:102A70002402264D2540CC682403A4B26419F32512
:102A80002D02C669AE432643C661052464030D6862
:102A90002D032540A2435219026203229202C46907
:102AA0009443C461896809021C3022E00068026A0C
:102AB000046A1025AC4304624C682402134D25407F
:102AC000CC682403A4B26419F3252D028669AE43B1
:102AD000264386610C682401A0252C40AA431219C4
:102AE0000262032292028469944384618968090224
:102AF000183002680A43026000200021197002B0F9
:102B0000F0BD01200021197002B0F0BD000FFFFFE1
:102B1000002C01400004004070B5002828D0054674
:102B20003C356978002905D100212970044600F060
:102B300065F82046022169700268166801218C0739
:102B4000A24205D0614B9A4202D0614B9A4211D108
:102B500070239E4383683343244EB2420EDCA2426C
:102B600015D05B4CA24212D0234CA2420FD03AE0C7
:102B7000012070BD33461D4EB242F0DD534CA242DF
:102B800005D01B4CA24202D01A4CA2422BD10324E6
:102B90002402A34304691C4380239C438369234389
:102BA0001360C368D36243689362484B9A4205D06E
:102BB0000F4B9A4202D00F4B9A4201D140691063E9
:102BC00051611069C00702D0106988431061A97271
:102BD000A970E97029716971A971E9712972697225
:102BE0006970002070BD1C46D6E7C046FF2B01402F
:102BF00000480140004401400020004070470000B0
:102C000070B5024603463E330120002909D004294D
:102C100004D0082914D14424402513E043243F253F
:102C200010E01D781C79641E661EB441012D054616
:102C300000D12546002D46D102241C701C7119E0DC
:102C400045244125555D145D641E661EB441012D69
:102C5000054600D12546002D35D10224082904D08F
:102C6000042905D15C705C7104E09C709C7101E0EA
:102C7000DC70DC7102240B46E341032B23D898005F
:102C8000114B1B581068C2681A43C2601F221140C2
:102C9000012213468B40016A99430162016A19437C
:102CA00001629107884205D00849884202D008494C
:102CB000884204D1816807230B40062B02D00168AB
:102CC00011430160002070BDB85C0008002C014079
:102CD00000040040F0B585B004460068C5680227CE
:102CE000294639404A424A410169049139404B42E0
:102CF0004B41134380210291C9430391002B13D10F
:102D000003997E310161012121778069800703D019
:102D10002046FFF72FFE05E0204600F0B8F82046D9
:102D200000F05DFA00202077012604222946114098
:102D30004842484104994907314600D501460320DD
:102D400000020190002916D10092206803997C317D
:102D50000161277780690199084203D02046FFF777
:102D600009FE05E0204600F092F8204600F037FA10
:102D700000202077009A08272946394048424841D8
:102D800004990907314600D50146002913D120686E
:102D90000399783101612277C069800703D020460A
:102DA000FFF7E8FD05E0204600F071F8204600F04E
:102DB00016FA002020771021294048424841049902
:102DC000C906314600D50146002914D1206803996F
:102DD000703101612777C0690199084203D020460C
:102DE000FFF7C8FD05E0204600F051F8204600F04E
:102DF000F6F90020207701212940484248410499F2
:102E0000C907314600D00146002906D12068039940
:102E10007F310161204600F0CFFA029929404842F3
:102E2000484104990906314600D50146002905D1DB
:102E30002068039901612046FFF79AFB4021294051
:102E40004842484104994906314600D501460029C7
:102E500006D12068039940310161204600F0F8FA5C
:102E600020200540684268410499890603D4002E59
:102E700004D005B0F0BD0646002EFAD120680399B3
:102E8000603101612046FFF774FB05B0F0BD70476B
:102E9000F0B582B03C23C35C012B02D1022002B00A
:102EA000F0BD03463C330224E241032A71D8C046F8
:102EB0007A441279520097440156233A0268106A04
:102EC000156A0126B5431562A0438E680643506813
:102ED0000C6801949569BE4FBA4206D0BD4CA2421F
:102EE00003D0BD4CA24200D0BDE00C24A643CC6868
:102EF0000427BC43B64F3443BA4200D0B6E0BBE02F
:102F00000268106A01242502166AAE431662640242
:102F1000A0438C682702074350680C680194D56968
:102F2000AB4CA2423AD03E46A24243D148E00268AE
:102F3000156A01242003166A8643166250688E685B
:102F400001960E680096D769A14EB24205D0A14EF7
:102F5000B24202D0A04EB24269D1A603B0434E693C
:102F6000B601064364E00268106A146A1025AC4397
:102F700014622024A0438C682701074350680C6822
:102F800001949469924DAA4223D03E46AA422AD186
:102F90002FE001200021197002B0F0BD0326B60217
:102FA000B743554CFF3CCE6836022640884C3E4322
:102FB000A24205D0874CA24202D0874CA24221D126
:102FC00003242403A0434C698F6927433C01044335
:102FD00019E0C026B743CE6836014025AE43F24D16
:102FE0003E43AA4205D0F14DAA4202D0F04DAA427A
:102FF0004AD10325AD02A8434D698F692F43BD0017
:10300000054342E0044610461C3054607324A54337
:10301000019C2543D5614C68D4631662D4690825A8
:103020002543D561D4690425AC43D4615AE00646F2
:1030300010461C30566073263602B743009E360297
:103040003E43D6614E6816646603B543019E36035F
:103050002E431662E502D6692E43D661A402D569D5
:10306000A543D56127E03446BA4205D0CF4EB242DF
:1030700002D0CF4EB24221D103263602B0434E6970
:103080008F6906433E431AE00546104618305560E6
:1030900073252D02AC43019D2D02254395614C689B
:1030A000946316620124E50296692E439661A40298
:1030B0009569A54395610969090214E00646104621
:1030C000183056607326B543019E354395614D68AF
:1030D0005563146294690825254395619469042514
:1030E000AC439461096902680A4302600020002130
:1030F000197002B0F0BDC046FFFBFFFF70B500289D
:1031000028D005463C356978002905D10021297071
:10311000044600F063F820460221697002681668D0
:1031200001218C07A24205D09F4B9A4202D0A14BAD
:103130009A4211D170239E4383683343994EB24221
:103140000EDCA24215D09B4CA24212D0BC4CA24233
:103150000FD03AE0012070BD3346924EB242F0DD0E
:10316000914CA24205D0914CA24202D0904CA24276
:103170002BD103242402A34304691C4380239C43D2
:10318000836923431360C368D36243689362864BA9
:103190009A4205D0854B9A4202D0854B9A4201D182
:1031A0004069106351611069C00702D010698843FB
:1031B0001061A972A970E97029716971A971E97129
:1031C000297269726970002070BD1C46D6E7C0463E
:1031D000002C014000480140004401407047704706
:1031E0007047000070B505463E35002905D0082916
:1031F00009D04124042909D009E02C78022C2C465E
:1032000015D1022070BD4024042900D13F24045D63
:10321000022C01D1022070BD082907D0042917D142
:103220006C1C26780124012E05D016E0AC1C2678F3
:103230000124012E11D1002A0FD0002B0DD002261F
:1032400000290CD008290CD004290CD16E700BE099
:10325000EC1C26780124012EEDD0204670BD2E7086
:1032600002E0AE7000E0EE7002250E46EE41032E45
:10327000F3D80D467E4436797600B7440146182FC0
:10328000416A454C8C62416A444CCC62416A444C70
:103290000C63416A064604683434084611462246E7
:1032A000FDF71EFC01240028D7D1610243E0C16A6A
:1032B000394C8C62C16A394CCC62C16A384C0C639F
:1032C000C16A064604683C34084611462246FDF7AA
:1032D00007FC01240028C0D1E1022CE0016B2E4C38
:1032E0008C62016B2D4CCC62016B2D4C0C63016B1D
:1032F000064604684034084611462246FDF7F0FBB6
:1033000001240028A9D1210315E0816A224C8C6296
:10331000816A224CCC62816A214C0C63816A064628
:1033200004683834084611462246FDF7D9FB0124CB
:10333000002892D1A1023068C2680A43C2601F21EE
:103340000D4001210A46AA40036A93430362036ABF
:1033500013430362134A90420DDD134A904205D095
:10336000124B984202D0124B98420FD1CB03446CBF
:103370001C43446403E08A07904202D0BE4A904254
:1033800004D1826807231340062B02D002680A4347
:1033900002600024204670BDD53800083D39000881
:1033A00075390008FF2B0140002C01400048014006
:1033B000004401400004004000687149884200D088
:1033C000704720490A78012042400A7048708A8874
:1033D00013462D3B0B2B01D2002006E0531E2C2B55
:1033E00001D2022001E0002A01D1174A107000200A
:1033F0008880164A13789B07E2D58B785B1C8B700C
:10340000DBB23C2BDCD38870D17900290BD09179C9
:10341000491C91711379C9B29942D1D3911D0346C8
:10342000D371087070475179491C5171D378C9B272
:103430009942C5D3511D0123D37108707047C0460E
:1034400000200040F201002024000020E1010020C3
:103450007047FEE710B582B0C648016801221143EB
:10346000016000681040019001980B240021204663
:103470000A46FDF74BFD2046FDF73CFD02B010BDAE
:10348000F0B587B000240694059404940394029444
:10349000012081050346B74802680A4302600268BA
:1034A0000A4001920199590402680A4302600268C5
:1034B0000A400192019999041D46009302680A434B
:1034C000026000680840019001980920C606862124
:1034D00030462246FDF7A8FC11480227394622460D
:1034E000FDF7A2FC059404940395029702AD3046C3
:1034F0002946FDF7BBFB05940497009803908420B0
:10350000029030462946FDF7B1FB059404970098D8
:103510000390029702482946FDF7A8FB07B0F0BDCB
:103520000004004810B584B0E948002484611249C1
:10353000124A134B036042608460C1600461FFF76C
:103540003FF8002801D0FDF71DFAE148FFF7E4FA43
:10355000002801D0FDF716FA03940294012001908F
:103560000094DB4869462246FFF716FA002801D08E
:10357000FDF708FA04B010BDE70300007FBB0000B0
:1035800000200040F0B595B03A4800248461A2497B
:103590000126B707076044608460C16004610E942F
:1035A0000D940C940994089407940694059404943B
:1035B000039402940194FFF703F8002801D0FDF76B
:1035C000E1F930030B902B480BA9FFF723F90028F2
:1035D00001D0FDF7D7F92748FFF790FD002801D06B
:1035E000FDF7D0F909940894224808A9FEF7C2FF14
:1035F000002801D0FDF7C6F90594039402946020D9
:1036000001901C4D01A928462246FFF741FC0028E5
:1036100001D0FDF7B7F914941394129411941094F7
:103620002868534988420DD0B84220D170045149CE
:103630000A6802430A60096801400F910F98022648
:10364000202009E070044B490A6802430A600968B7
:1036500001400F910F984020149613941294022168
:10366000119110900920C00610A9FDF7FFFA15B0BE
:10367000F0BDC046100D002000040040F0B595B02C
:103680003A48002484616449394F0760446084608B
:10369000C16004610E940D940C94099408940794ED
:1036A000069405940494039402940194FEF788FF11
:1036B000002801D0FDF766F9012630030B902B4856
:1036C0000BA9FFF7A7F8002801D0FDF75BF9274801
:1036D000FFF714FD002801D0FDF754F90994089470
:1036E000224808A9FEF746FF002801D0FDF74AF955
:1036F000059403940294602001901C4D01A9284672
:103700002246FFF7C5FB002801D0FDF73BF91494D2
:1037100013941294119410942868B8420ED0B107F3
:10372000884220D1700413490A6802430A6009687C
:1037300001400F910F980226202009E070040D49E6
:103740000A6802430A60096801400F910F984020FF
:103750001496139412940221119110900920C0061E
:1037600010A9FDF783FA15B0F0BDC046580D002032
:10377000000400401410024080B510481049002297
:1037800000F042FC002801D0FDF7FCF80B480D4981
:1037900000F090FE002801D0FDF7F4F807480A4930
:1037A00000F003FA002801D0FDF7ECF8034800F020
:1037B00098FE002801D0FDF7E5F880BDA0060020A6
:1037C000080000202C0000205001002080B5642853
:1037D00000D36420104941430846FCF7DEFE0F4A3F
:1037E0000F4BFCF7DDFEFCF755FE0149088080BD5C
:1037F000A00D002080B5642800D364200649414311
:103800000846FCF7CAFE054A054BFCF7C9FEFCF763
:1038100077FE0449086080BD5F0900007B14AE4755
:10382000E17A843FA40D0020FEE77047704780B521
:10383000FDF706FB80BDB0B598B000251295119537
:1038400010950F950E950D9517950224149401204F
:1038500013900C9021210B910105169100041590F5
:1038600005950495039502950BA8FEF71DFC00280D
:1038700003D0EFF3108072B6FEE70A95099508941D
:103880000720079007A801242146FEF727FB002800
:1038900003D0EFF3108072B6FEE706956004019046
:1038A00001A8FEF781FA002803D0EFF3108072B66A
:1038B000FEE7A10600200246FEF7CEFB18B0B0BD21
:1038C0007047000080B50248FFF704FA80BDC0468B
:1038D000C80C002010B5446A21463E31626A82421B
:1038E00010D0A26A824214D0E26A824219D0226BBE
:1038F00082421DD1082222778069002818D1012038
:10390000C87015E0012222778069002810D10A7062
:103910000EE0022222778069002809D10120487038
:1039200006E0042222778069002801D101208870F6
:103930002046FFF754FC0020207710BD10B5446AE4
:10394000616A81420AD0A16A814209D0E16A81425A
:1039500008D0216B814207D1082004E0012002E059
:10396000022000E0042020772046FFF739FC0020E9
:10397000207710BD10B5446A21463D31626A82420B
:103980000BD0A26A82420BD0E26A82420CD0226B38
:1039900082420DD0012008700EE0012048700AE03C
:1039A00001208870022006E00120C870042002E097
:1039B00001200871082020772046FEF7D9FF00205B
:1039C000207710BDF0B581B05722D300C458002C29
:1039D0001AD014224A438518EA69002A0ED0C31867
:1039E0009B6828264E439B191B6A074610460E46C5
:1039F0001946FCF74FFC0A46002908D085208100B3
:103A00000020605001B0F0BD022001B0F0BD38468A
:103A100031461C3500242C602246234600F024FD4C
:103A2000204601B0F0BD70B505465720C600A85924
:103A3000812292008418284600F0D6FBA060A85985
:103A4000002808D0A919206808344968CA682146A6
:103A50009047002070BD022070BDB0B504468121A2
:103A600000F0FAFA0025E5620121204600F0F4FAA0
:103A70005B20800025508221204600F0EDFA25646D
:103A80005720C0002158002907D0241860684068DA
:103A90008047206800F04FFF25600020B0BD10B5C2
:103AA0005721C90042185368002B0BD04158012000
:103AB00040020C182078FF2804D062789B68984751
:103AC000FF202070002010BD0A21018000487047AF
:103AD000EC00002043210180004870476400002072
:103AE0004321018000487047A80000204321018045
:103AF00000487047F8000020F0B583B00446007C11
:103B0000012675020028029500D040258121022758
:103B1000204601913A462B4600F0C6FBE66220465D
:103B200031463A462B4600F0BFFB5B208000265012
:103B3000822103220823204600F0B6FB266487205A
:103B4000800000F0F9FE5721C9006050002813D012
:103B50006118019A9200851848680068804700261D
:103B60002E616E61207C0028029B00D040232A68D1
:103B70000121204600F0ACFB304603B0F0BD10B58B
:103B80005721C9004258002A05D0037C0121002B8F
:103B900003D0402302E0022010BD4B028124A40088
:103BA000125900F095FB002010BD002904D0AF226F
:103BB0009200815000207047022070475722D200A7
:103BC0008058812292008150002070475723DB00EB
:103BD000C0584123DB00C150C018826000207047EC
:103BE000F0B583B0A72292008218D56902AB0024F9
:103BF0001C7001AB1C800B5760261E4015D0202E78
:103C00003AD1AF2292008618CA88002A1ED0002B13
:103C100038D401235B02EB185A7049781970294691
:103C200000F07FF8204603B0F0BD4B780B2B20D07E
:103C30000A2B14D0002B1FD11278032A1CD101A902
:103C4000022200F08DF8204603B0F0BD48783268BB
:103C50009368002422469847204603B0F0BD1278AE
:103C6000032A09D102A9012200F07AF8204603B004
:103C7000F0BD1278032AD5D000F049F8022420467E
:103C800003B0F0BD4B783668B768009018460E4612
:103C90002946B847F2880098294600F061F8204686
:103CA00003B0F0BD80B55721C9004158002907D0A5
:103CB0004122D2008918CA68002A03D0012080BDA1
:103CC000022080BD0122CA608B6803630A689BB230
:103CD000812100F0C9FB002080BD80B5AD2292009B
:103CE000825852689047002080BD10B513460A469E
:103CF0000024214600F0ECFA204610BD10B5134612
:103D00000A460024214600F0AFFB204610BD10B546
:103D10000446802100F07AFB0021204600F076FB6B
:103D200010BDB0B513460A46572189004350A5245B
:103D3000A4000325055141184B600024214600F0E2
:103D4000C7FA2046B0BD10B5A52189000522425012
:103D5000002421462246234600F0BAFA204610BD30
:103D600010B513460A46A521890002244450C361B8
:103D700003620024214600F077FB204610BD10B5F9
:103D8000A5218900042242500024214622462346D0
:103D900000F06AFB204610BD10B50A4603A02A4C6D
:103DA000214600F0DBF8204610BDC04643444320C6
:103DB000436F6E66696700001220088000487047F4
:103DC0003C01002010B50A4603A01F4C214600F01C
:103DD000C5F8204610BDC04643444320496E746573
:103DE0007266616365000000042008800048704727
:103DF0006001002010B50A4603A0134C214600F0D4
:103E0000ADF8204610BDC04653544D6963726F65CE
:103E10006C656374726F6E696373000010B50A4657
:103E200003A0094C214600F099F8204610BDC04679
:103E300053544D3332205669727475616C20436F50
:103E40006D506F7274000000FC01002010B51A2044
:103E50000880404801688268521879D041683E481D
:103E600000234376C3754375C3744374C3734373AC
:103E7000C3724372C3714371C3700F23134014079D
:103E8000640F052C01D3373300E030330374540F33
:103E9000130F052C01D3373300E0303383704C0F00
:103EA0000B0F052C01D3373300E030338374130636
:103EB0005C0F1B0F052C01D3373300E030338373C5
:103EC00013055C0F1B0F052C01D3373300E0303393
:103ED000037313045C0F1B0F052C01D3373300E071
:103EE0003033837213035C0F1B0F052C01D3373360
:103EF00000E03033037213025C0F1B0F052C01D35B
:103F0000373300E0303383711201530F120F052B4A
:103F100001D3373200E0303202710A03530F120F1F
:103F2000052B01D3373200E0303202760A02530FFC
:103F3000120F052B01D3373200E0303282750901B0
:103F40004A0F090F052A01D3373100E030310175DE
:103F5000014810BDACF7FF1F64010020B0B5002878
:103F600051D00378002B14D0041D0023E51E2D78BA
:103F7000002D10D0A51E2D78002D0ED0651E2D7899
:103F8000002D0CD0251D1B1D2478002C2C46EDD1B6
:103F900007E0002305E0012402E0022400E00324FE
:103FA0002343DBB25B009B1C138003224A700B701F
:103FB0000378002B27D0021D0220C4B20B550C1928
:103FC00000236370D41E2478002C1CD0851CEDB215
:103FD0004C554C196370941E2478002C13D0051D89
:103FE000EDB24C554C196370541E2478002C0AD045
:103FF000851DEDB24C554C196370141D08301378B3
:10400000002B2246D9D1B0BD10B5002811D0A7236E
:104010009B00C3189C69002C01D000249C610029DE
:1040200000D0596102700121197000F0E5F80020FC
:1040300010BD022010BD000080B50B2292018058F7
:10404000FCF7F0FF042802D30220C0B280BDC100FB
:10405000F648C840C0B280BD80B50B22920180589E
:10406000FCF7BEFF042802D30220C0B280BDC1000D
:10407000F748C840C0B280BDF0B581B0A5239B0011
:10408000C718AD239B00C418002909D022685369C2
:104090000222002B26D03C7A032C23D1984724E01F
:1040A0003968002916D0042914D0022915D1016AD3
:1040B000466AB1421DD9891B01628BB20446114682
:1040C0001A46FFF71BFE002120460A460B4600F069
:1040D000FFF802E0802100F099F9387B012804D133
:1040E00000223A73104601B0F0BD0022104601B024
:1040F000F0BD0090C56928463146FCF7CBF8B542C3
:1041000013D3002911D1786885420ED20025009C76
:10411000204629462A46FFF7F1FD7D6020462946C4
:104120002A462B4600F0D4F8D7E72068C16800295A
:1041300004D0387A032801D1009888478021009C58
:10414000204600F063F92046FFF7FDFDC5E7F0B516
:1041500081B0A5239B00C518AD239B00C41800297E
:104160000CD0226892690223002A04D02C7A032CF6
:1041700001D190470023184601B0F0BD29680529F8
:1041800018D000230329F6D10B21490146183768BE
:1041900071688F4217D91C467B1A33608B4200D35B
:1041A0000B469BB211461A46FFF79FFD2346184661
:1041B00001B0F0BD00242C60214600F027F9234611
:1041C000184601B0F0BD1E4621680969002905D0D6
:1041D0002A7A032A02D1044688472046FFF7CFFDFA
:1041E0003346184601B0F0BD80B50B2292018058CD
:1041F000FCF743FF80BD000070B50B218A011D490B
:1042000081505B23DB00C85000234B814B7202239B
:10421000CB71194B0B604123DB008B80861808465D
:10422000FDF708FC002801D0FCF7ACFB3068002447
:10423000182321462246FCF799FE30688021582336
:104240002246FCF793FE30688121C0232246FCF70A
:104250008DFE306801210D022B4610332246FCF7FB
:1042600085FE3068822122462B46FCF77FFE2046E1
:1042700070BDC046EC090020005C004028220B23E2
:104280009B01C0584BB2002B06D44A438018A92189
:1042900049004018007870477F2319404A4380182E
:1042A000123000787047000010B514460B229201BE
:1042B00080581A462346FCF7E9FE042802D3022060
:1042C000C0B210BDC1007048C840C0B210BDC046E9
:1042D00010B50B24A4010059FCF700FF042802D3F9
:1042E0000220C0B210BDC1006748C840C0B210BDB6
:1042F000F0B581B0064600244025214622462B46D3
:10430000FFF7D2FF2B20C000012737503018C560BF
:104310008021304622462B46FFF7C6FFA5218900A3
:10432000745071180F727562B7610C617460AD21C1
:10433000890071184A68002A04D009684A68002177
:1043400030469047002001B0F0BDA7218900425CB3
:10435000042A02D14018417801700020704780B5CE
:10436000A7218900425C032A05D141188969C969DE
:10437000002900D08847002080BD017400207047CC
:1043800080B50B2292018058FDF7C9FC042802D3A6
:104390000220C0B280BDC1003B48C840C0B280BD51
:1043A000F0B581B00546A5208600AF193C4614340F
:1043B000204600F06BF80121A951798B7960397D95
:1043C0001F220A40022A11D0012A08D0002A14D143
:1043D0002846214600F08AF8002001B0F0BD2846AA
:1043E000214600F07CFA002001B0F0BD28462146AD
:1043F00000F0DEF9002001B0F0BD80221140284617
:1044000000F004F8002001B0F0BD000080B50B22E0
:1044100092018058FCF776FE042802D30220C0B235
:1044200080BDC1001848C840C0B280BD0002010272
:1044300080B50B2189014058FDF78EFC042802D37A
:104440000220C0B280BDC1000F48C840C0B280BDCC
:1044500000020102A7218900425C04234354401852
:10446000427000207047000010B50B24A4010059D1
:10447000FCF772FE042802D30220C0B210BDC100B6
:104480000148C840C0B210BD000201020A780270A3
:104490004A7842708A78CB781B029A1842800A794F
:1044A0004B791B029A1882808A79C9790902891886
:1044B000C1807047002904D0AD22920081500020B5
:1044C00070470220704780B5AD2292008258002AC2
:1044D00005D012689047411E8841400080BD0220EF
:1044E00080BD80B5FFF7A4FF002080BD70B582B00D
:1044F0000B7860221A40A7239B00C518002A0AD017
:10450000402A02D0202A00D040E1AA699268904750
:10451000002002B070BD4A78092A00D936E1520065
:104520007A4492885200974409002C0031014B00D4
:1045300031015500750031011F0036002A78521EE6
:10454000022A00D922E1C988022900D01EE1A96807
:104550004A1E91414900C16001460C310222FFF719
:10456000FFFB002002B070BDC988012900D00DE119
:1045700029784A1E022A65D200218160014608314D
:1045800064E02A78521E022A00D9FFE049880129F6
:10459000BED1002118E04988844E3170C9B2022989
:1045A00000D3F3E02A78032A56D0022A00D073E021
:1045B000002900D1B4E003222A7041600446A7E03C
:1045C00049880129A4D10121A960FFF7D8FB002067
:1045D00002B070BD8A88002A00D0D7E0CA88002ABD
:1045E00000D0D3E04E887F2E00D9CFE02978032970
:1045F00000D1CBE0AE70F1B20446FFF7C1FE204619
:10460000FFF7BDFB002E00D1CBE002202870002078
:1046100002B070BD01AA002313804A88130A5B1EF2
:10462000062B00D9B2E0C0467B441B795B009F4457
:10463000032B1DADAD424C000E460446007C69695B
:104640000A6885E0032900D0A0E0011D0122FFF7E0
:1046500087FB002002B070BD002942D041680129CB
:104660004ED1FFF78CFB002002B070BDD2B2052AFC
:1046700000D98BE07A44127952009744025F595C6A
:1046800056626A6952685EE00E46A9690446007C7B
:1046900000282ED0C96A2DE080210446FFF7B6FE1F
:1046A00000212046FFF7B2FE31782046FFF715FBC8
:1046B000002002B070BD027C002A67D10E4604467D
:1046C000A869416B01A8884744E0027C002A5DD1BB
:1046D0000E460446A869016B01A8884701460720D9
:1046E0000CE00022426002222A700446FFF7F5FA2D
:1046F00015E0896A01A888470146022048702AE02F
:10470000C9B20546FFF7E9FA317869602C462846B8
:10471000FFF7D9FE022802D18021204638E020464A
:10472000FFF72DFB002002B070BD6A6952690AE0F4
:104730006A69D26807E06A69126904E06A69926886
:1047400001E06A699269002A20D00E460446007C86
:1047500001A99047014601A80288002A0CD0F088E0
:10476000002809D03546824200D3024601A80280C3
:104770002046FFF7F5FA2E46F088002800D0C7E65D
:104780002046FFF7FCFA002002B070BD80210446ED
:10479000FFF73CFE00212046FFF738FE002002B064
:1047A00070BD01202870002002B070BDF80100200B
:1047B000B0B50B7860221A40A7239B00C318002ACB
:1047C00008D0402A01D0202A61D19A699268904786
:1047D0000020B0BD0C46097922466478002C27D011
:1047E000012C15D0032C52D11B78032B13D15388E5
:1047F000002B09D17F230B4006D0D288002A03D199
:104800000446FFF703FE2046FFF7B9FA0020B0BDCB
:104810001B78032B17D0022B39D14A0637D0044618
:10482000FFF7F4FD80212046FFF7F0FD0020B0BD2A
:104830001A78032A14D0022A29D14A0627D1090658
:1048400043D5142143E05288002A46D14A0603D0BA
:104850000446FFF7F1FB2046FFF791FA0020B0BDB8
:104860000F220A4014235343C218802903D22B235A
:10487000DB00D25800E09269002A08D01422802977
:104880000FD37F230B405A43841814340EE0802149
:104890000446FFF7BBFD00212046FFF7B7FD0020CF
:1048A000B0BD4A43821855239B00D4184A0607D04E
:1048B0000546FFF7E3FC014628464A1E914100E009
:1048C000002121600222214605E0552189000022B5
:1048D000425041180222FFF743FA0020B0BDB0B5A4
:1048E0000B7860221A4003D0402A01D0202A18D128
:1048F000A7229200821813785B1E022B11D80B7925
:10490000022B0ED89269926804460D469047E988BA
:1049100000290ED100280CD12046FFF730FA0020E4
:10492000B0BD80210446FFF771FD00212046FFF74E
:104930006DFD0020B0BD704700487047FC030020AB
:10494000F0B586B00F78BA008318845A7D4A2240A9
:10495000CD78032D059511D8002404947D442D793C
:104960006D00AF4401030D07012404E0764C1219D9
:10497000521C05E003246402224301E00124049454
:10498000724C22431A801A88C74D2A403A43224368
:104990001A800124A2020E7B6D4D002E05D0059ECB
:1049A000022E039727D02E4626E05026865B0296DD
:1049B000CE88A643FD0001953D464F78002F77D065
:1049C0008018019940180299465218884006B64A44
:1049D0005F4C04D5188810402018403018803032C1
:1049E00019881140059801285DD020346140198054
:1049F000049806B0F0BD574E1F88574D3D403543D3
:104A00001D805025465B02938318039AD700DB195B
:104A1000E4430F8927409F53425B9818029B4A89C1
:104A200022408280B14A1446F134188820404978E7
:104A300000291AD000289C4D04D0188828407449B9
:104A40000143198018884006414C04D51888284035
:104A500020184030188030351888284005990129E1
:104A60001DD02146203148401AE000288E4D04D048
:104A70001888284066490143198018884006344C3C
:104A800004D5188828402018403018801888104015
:104A900032494140198030351988294003E02043CC
:104AA00018801988114021431980049806B0F0BD80
:104AB000039500900746503700981018019A821805
:104AC000029810188680921D3F88D05B1E4E0640CB
:104AD000D653164608690028009A1D4D07D03E2877
:104AE00009D8F15B04404008001985020CE0B85B6E
:104AF000803D054309E0C1064009002900D1401E60
:104B00008002F15B0143803D0D43F55319887748DE
:104B10000446F134214205D01988634C21403C4CB5
:104B20000C431C800399002903D01A8802400C49C9
:104B300002E012880240094951401980049806B0E9
:104B4000F0BDC0468F89FFFFFF0300008080FFFF9C
:104B5000808000008081FFFF0F0E000080B0FFFF0B
:104B600080A0FFFF70B50A789200845A80184B78B5
:104B70000D7B4D4A2549002D27D05C4E3546F13539
:104B80002C40002B2AD04B4D002C03D0038813401F
:104B90002B4303801446303403885B06334603D529
:104BA000068816400E430680068816402E4306806F
:104BB0000D46403D028822402A43028002881A4066
:104BC000891840390180002070BD002B15D0134694
:104BD0003033640614460D46ECD4EFE7002C04D0C5
:104BE000038813400A4C1C43048013463033048866
:104BF00064060D463446D3D4D6E73C4B1D46F1350A
:104C00002C42DBD02B4D1446D4E7C046C0800000B8
:104C100080C0FFFF5821425A0123DB031343435254
:104C200000207047402201218152002181524030F2
:104C300081800182084670474021425A024B13404E
:104C4000435200207047C0467F40000010B50A7BE9
:104C5000002A01D0002010BD0A789200845A8018E2
:104C60004A78002A0DD062060F4A104B04D50488FA
:104C700014401C1920340480C9780129EAD030324C
:104C80000BE01A4A1146F131094B0C4205D001885C
:104C9000054C0C40074961180180018811405940BA
:104CA0000180002010BDC0460F0F0000A080000052
:104CB00080B0000080C0000010B54B78002B04D0FD
:104CC000094A002B04D1094B03E0064A002BFAD015
:104CD000074B09788900445A1C4054404452002034
:104CE00010BDC0468090FFFF9080FFFF0F3F000087
:104CF0003F0F0000F0B58AB007464C78012C5AD11E
:104D00008D690B699D4200D31D460A7B002A00D1A4
:104D100081E00A6AC878022800D0D6E007950D78AD
:104D2000A8003C18385A3E46FA4F074068000890E1
:104D300006939A4200D833E1F74807432780079F3C
:104D4000D01B0590086220885022B25ABBB2039350
:104D5000EB003446503404940124A4024006099622
:104D600000D59DE1A0190190C018009080184780DF
:104D700048690290039B002B089E3D4600D148E302
:104D80000889019A1718581C420803231340501E23
:104D9000002B00D189E20390029D28786C782402D0
:104DA00020183880012B00D083E2AB1CBF1C039875
:104DB0000246079D12E3087B002852D0CA78012AD8
:104DC00000D1B4E0022A00D0E7E00E78002C00D039
:104DD0001DE25020385A381801220692920207929A
:104DE0008018851C0896F300E85ADF4A1040E85204
:104DF0000E6909975037DD4C002E00D1C8E13E2ED8
:104E000000D9CEE1E85A3246069C22407408A21826
:104E100094020443D0E1012290022B04089000D1B7
:104E200031E109973B18CC881B19ACB2641C6608A9
:104E3000032737404C69701E002F00D107E1069010
:104E400022786078000280181880012F00D050E18D
:104E5000A41C9B1C06980646099F032800D3F9E072
:104E600011E15020385A099738180125AA028018F4
:104E7000831D08780890C400185BBB4A02401A538F
:104E80000F698E69F21B12D200228A61BE4211D2D2
:104E9000002E12D03E2E099F00D9CAE0185B354083
:104EA00071084919890201431953089EF9E18A6181
:104EB000BE42EDD33E46002EECD1E05AAC49B039AB
:104EC0000143E152099F089EEBE1501B08620878FC
:104ED0008200BA5A5023FB5A5606AAB2C4004000B8
:104EE00008903819C01801239B02C018002E00D565
:104EF00081E045809F4C9D4D002A00D197E0F81835
:104F00000B89C518501C4208032616404969531ED8
:104F1000002E00D1F8E008784C7824022018288070
:104F2000012E00D007E1891CAD1C1A46E1E10A6997
:104F30008B699D1A07D200258D61934206D20E78A7
:104F4000002C08D0ADE18D619342F8D313460E7862
:104F5000002C00D0A5E15020385A38180124A102B5
:104F6000079140183146861C0891C900705A7E4A44
:104F70001040705209973D4650357C4F002B0694E7
:104F800000D109E13E2B00D956E1705A1A46224061
:104F90005C08A2189402044359E101200AB0F0BD54
:104FA0007348381830382080E80030185023F35AFE
:104FB000C01801239B02C018428010046D4C6B4D39
:104FC000374634D0F8180B89C51890B2401C4208F7
:104FD000032616404969531E002E00D196E008783A
:104FE0004C78240220182880012E00D0AFE0891CC4
:104FF000AD1C1A46A3E1C5805E4C5C4D002A16D05C
:10500000F8184B89C518501C4208032616404969F8
:10501000531E002E7CD008784C782402201828805B
:10502000012E00D0A8E0891CAD1C1A46ADE1089EF7
:10503000D6E2F0067109002800D1491E089E8802B8
:10504000195B01434A48B0380843185329E1099FC6
:10505000032818D320786278120210181880A078DC
:10506000E278120210185880207962791202101822
:105070009880A079E27912021018D880361F08347F
:105080000833002EE6D15020385A089AD219101849
:105090000978CA00801845804E00364C334D9FE297
:1050A000A0190190C01800908018C780486902902C
:1050B000039B002B089E3D4600D106E24889019AD9
:1050C0001718581C420803231340501E002B00D110
:1050D000EDE00390029D28786C7824022018388037
:1050E000012B00D0F1E0AB1CBF1C03980246079DCA
:1050F000D0E1A078E278120210185880022F0DD16A
:10510000B61E241D1B1D11E0089EF4E0089E18E148
:10511000089E3CE10F0E000080810000207962793A
:10512000120210189880F61EA41D9B1D099F069858
:1051300003288FD2A7E78878CC78240220186880CB
:10514000022E00D0CDE0921E091D2D1DD1E08878E1
:10515000CC78240220186880022E00D0E7E0921E4E
:10516000091D2D1DEBE0C046FF030000B0800000CC
:10517000B080FFFF3F0F00008878CC782402201811
:105180006880022E00D0F8E0921E091D2D1DFCE063
:10519000585BB03C04430FE0885B3C46B03C0443A2
:1051A00055E0F0067409002800D1641EA002EA5AF6
:1051B0000243F64CB03C1443EC520998079A10187D
:1051C0003A888018851DE85AF14A1040E852002EAE
:1051D00008D03E2E0DD8E85A069C344072081219A9
:1051E000940202E0585BE94CB03C0443099F089EDE
:1051F0000CE0F0067409002800D1641E099F089E87
:10520000A002EA5A0243FB4CB03C1443EC52C8697A
:10521000002846D0B1007B5AF7480340834201D0B2
:10522000002B3ED17818F549303902880A40F449FC
:1052300051181031018034E0D8065C09002800D1F3
:10524000641EA002725A02433C46B03C144374529E
:105250000998079A10182A888018851D685AE44A08
:1052600010406852002B0BD03E2B089E0DD8685A78
:10527000069C1C405A081219920202436A520FE01F
:10528000485BB03F07434F531CE6D8065B09002834
:1052900000D15B1E98026A5A0243B03F17436F5217
:1052A000099F7600D74DD84C9AE1029B96E0029B6D
:1052B000F0E0A878EC78240220187880022B00D047
:1052C00082E0921E2B1D3F1D86E0A878EC78240218
:1052D00020187880022B00D0D2E0921E2B1D3F1D9B
:1052E000D6E008794C7924022018A880D21E891DA6
:1052F000AD1D089EC14C032B64D308784B781B026C
:10530000181828808878CB781B02181868800879CC
:105310004B791B021818A8808879CB791B021818C2
:10532000E880121F08310835002AE6D14AE00879E2
:105330004C7924022018A880D21E891DAD1D089E1C
:10534000AE4C032B3ED308784B781B0218182880EC
:105350008878CB781B021818688008794B791B0273
:105360001818A8808879CB791B021818E880121FBA
:1053700008310835002AE6D124E008794C79240266
:105380002018A880D21E891DAD1D089E9B4C032BA2
:1053900018D308784B781B02181828808878CB78A7
:1053A0001B021818688008794B791B021818A8800E
:1053B0008879CB791B021818E880121F083108354C
:1053C000002AE6D18B4D0BE128796B791B02181866
:1053D000B880D21EAB1DBF1D079D0398032818D3AC
:1053E00018785C782402201838809878DC782402B9
:1053F0002018788018795C7924022018B880987970
:10540000DC7924022018F880121F08330837002A9C
:10541000E6D1029847194F610698059B834201D84F
:10542000002200E05A1B754C0A62834200D81D46D8
:1054300004980088009A1018C580AAB2002A70D07B
:10544000488901990918501C420803251540531E2C
:10545000002D7DD038787C78240220180880012D1A
:1054600003D1BF1C891C1A4671E0B878FC7824026D
:1054700020184880022D62D1921E3F1D091D66E052
:1054800028796B791B021818B880D21EAB1DBF1D7E
:10549000079D0398032818D318785C7824022018F5
:1054A00038809878DC7824022018788018795C7924
:1054B00024022018B8809879DC7924022018F8801A
:1054C000121F08330837002AE6D1029847194F61A6
:1054D0000698059B834201D8002200E05A1B474CE6
:1054E0000A62834200D81D4604980088009A10186A
:1054F0004580AAB2002A14D0088901990918501CC5
:10550000420803251540531E002D4CD038787C7876
:10551000240220180880012D06D1BF1C891C1A46C0
:1055200040E0099F334D5BE0B878FC7824022018F6
:105530004880022D2ED1921E3F1D091D32E0387980
:105540007C79240220188880D21EBF1D891D2B4C17
:10555000284D032B43D338787B781B02181808801A
:10556000B878FB781B021818488038797B791B02C1
:1055700018188880B879FB791B021818C880121F88
:1055800008370831002AE6D129E0C046B080000083
:10559000FF03000038797C79240220188880D21E0D
:1055A000BF1D891D154C134D032B18D338787B78FC
:1055B0001B0218180880B878FB781B02181848805E
:1055C00038797B791B0218188880B879FB791B021F
:1055D0001818C880121F08370831002AE6D1099F21
:1055E0007000395A21406940395200200AB0F0BD9C
:1055F000FF030000B0800000404000003F0F0000AB
:10560000B080FFFF80B000000F3F00000246403234
:10561000002191804022024B835208467047C046C9
:1056200080BF000080B50248FBF7ACFD80BDC046DE
:10563000EC0900204421405A704770B580180122BF
:1056400092028018022B31D35A0803251540541EAC
:10565000002D14D006880E70360A4E70012D05D12B
:10566000891C801C2246032C0BD21FE046888E70BA
:10567000360ACE70022D1ED1921E091D001D032C6C
:1056800014D304880C70240A4C7044888C70240A4B
:10569000CC7084880C71240A4C71C4888C71240AE3
:1056A000CC710830121F0831002AEAD1DA0701D084
:1056B0000088087070BD85880D712D0A4D71D21E4D
:1056C000891D801D032CDCD2F0E70000F0B5344AC0
:1056D00014780B68002B46D0072C44D81319057892
:1056E0005D72631C0D68022D3BD3062C39D8D3188C
:1056F00045785D72A31C0D68032D32D3052C30D87C
:10570000D31885785D72E31C0D68042D29D3042C11
:1057100027D8D318C5785D72231D0D68052D20D3B9
:10572000032C1ED8D31805795D72631D0D68062DF4
:1057300017D3022C15D8D31845795D72A31D0D68B7
:10574000072D0ED3012C0CD8D31885795D72E31D7B
:105750000968082905D3002C03D1D118C0794872F3
:1057600008231370DCB2082C19D3507AAC2814D15A
:10577000D07A917A0918137BCC18517B6518947BE9
:105780002E19D57B7619543EF6B2177CB74204D158
:10579000D370507055711471917000201070F0BD6D
:1057A000E0010020002901D0002070474C21802218
:1057B000425200207047000070B586B001204104BD
:1057C000134A13680B43136012680A40019201994F
:1057D000002604960396029004030194059609207E
:1057E000C50601A92846FBF741FA2846214632465C
:1057F000FBF71AFB4B2086003046FBF7B3F928462F
:105800002146FBF7BFF93046FBF7ACF906B070BD97
:1058100014100240F0B581B0A724A400124D2C5DF5
:10582000032C1DD1089D0095079E069F0F4CE57126
:10583000A67167712371E270A1706070AC2525704C
:1058400040188018C018C0198019009940185438A1
:10585000207209212046FBF76FF8002001B0F0BD4F
:10586000012001B0F0BDC046A0060020B50D00200B
:1058700070B5002B3CD080180122920280185A1C6F
:10588000520803241440531E002C16D00D784E7875
:10589000360275190580012C05D1891C801C1A4619
:1058A000032B0CD224E08D78CE7836027519458012
:1058B000022C1ED1921E091D001D032B18D30B783C
:1058C0004C782402E31803808B78CC782402E31808
:1058D00043800B794C792402E31883808B79CC794F
:1058E0002402E318C380121F08310830002AE6D1D1
:1058F00070BD0C794D792D022C198480D21E891D22
:10590000801D032BDBD2F3E786B0FBF7A3FAFDF78C
:1059100092FFFDF7B5FDFDF79DFDFDF733FEFDF7A9
:10592000ADFEFFF749FFFDF727FFFDF7FBFD4B48F5
:1059300000244B4A012521462B46FDF753FC4948DC
:10594000494A21462B46FDF74DFC484D2846FCF7B9
:105950003BFF284603942146FDF752F90920C00673
:105960000590444E454C464D3078002819D030788B
:10597000022819D140480078002803D00421059856
:10598000FBF74AFA20788021C00616D40027059834
:105990003A46FBF749FA022135483A46FBF744FA02
:1059A0001AE00421012201E0042100220598FBF7FE
:1059B0003BFA20788021C006E8D5012705983A46B1
:1059C000FBF732FA02212A483A46FBF72DFAA7786C
:1059D000092F01D80A27A7703846FDF70BFF217859
:1059E000880709D40020E071A0716071C9070CD04C
:1059F0006078092807D908E0E0790028039804D1E5
:105A000060780A2801D20A206070FDF7DFFE28784E
:105A100000280AD01B481C49FFF758FE00202870B8
:105A2000022101220598FBF7FFF9184800780128A8
:105A30009AD160780490A2782178E0782546277979
:105A4000347800900197029400273846049BFFF7B2
:105A5000E1FE0E4807702C4685E7C046580D002031
:105A6000A00D0020100D0020A40D0020C80C002067
:105A70000004004824000020F2010020E101002081
:105A80001C060020AC0D0020A80D0020F301002012
:105A900043088B421AD3002203098B4279D3030AAD
:105AA0008B425ED3030B8B4242D3030C8B4227D332
:105AB0000902FF2212BA030C8B4202D3121209020E
:105AC00003D0030B8B4233D31AE0D3E0411A804159
:105AD000401C704703460B4371D443088B42F5D3F7
